:100000000C949A010C94B9010C94B9010C94B901A7
:100010000C94B9010C94B9010C94B9010C94B90178
:100020000C94B9010C94B9010C94B9010C94B90168
:100030000C94B9010C94B9010C94B9010C94B90158
:100040000C94B9010C94B9010C94B9010C94B90148
:100050000C94B9010C94B9010C94B9010C94B90138
:100060000C94B9010C94B9010C94B9010C94B90128
:100070000C94B9010C94B9010C94B9010C94B90118
:100080000C94B9010C94B9010C94B9010C94B90108
:100090000C94B9010C94B9010C94B9010C94B901F8
:1000A0000C94B9010C94B9010C94B9010C94B901E8
:1000B0000C94B9010C94B9010C94B9010C94B901D8
:1000C0000C94B9010C94B9010C94B9010C94B901C8
:1000D0000C94B9010C94B9010C94B9010C94B901B8
:1000E0000C94B9010C94B9010C94B9010C94B901A8
:1000F0000C94B9010500000000000500005F00003D
:1001000005000700070005147F147F1405242A7FCB
:100110002A12052313086462053649562050050843
:100120000703000005001C224100050041221C00BD
:100130000514083E08140508083E08080500B070BC
:100140000000050808080808050060600000052098
:1001500010080402053E5149453E0500427F40001B
:10016000057249494946052141494D330518141284
:100170007F10052745454539053C4A494931054128
:100180002111090705364949493605464949291EBD
:10019000050000140000050040340000050814228A
:1001A000410005141414141405412214080005021A
:1001B00001590906053E415D594E057C1211127C1C
:1001C000057F49494936053E41414122057F41416C
:1001D000413E057F49494949057F09090909053E0D
:1001E00041415173057F0808087F0500417F4100A8
:1001F000052040413F01057F08142241057F404012
:100200004040057F020C027F057F0408107F053EF9
:100210004141413E057F09090906053E4151215EE4
:10022000057F091929460526494949320501017FFB
:100230000101053F4040403F051F2040201F053F72
:100240004038403F05631408146305030478040331
:1002500005615149454305007F41410005020408FD
:100260001020050041417F00050402010204054001
:100270004040404005070B000000052054547840E2
:10028000057F28444438053844444428053844440C
:10029000287F0538545454180500087E09020518B3
:1002A000A4A49C78057F080404780500447D4000E0
:1002B000052040403D00057F102844000500417F97
:1002C0004000057C04780478057C0804047805382F
:1002D0004444443805FC182424180518242418FC28
:1002E000057C080404080548545454240504043FBC
:1002F0004424053C4040207C051C2040201C053C3B
:100300004030403C054428102844054C9090907C97
:10031000054464544C44050008364100050000774C
:100320000000050041360800050402040804050029
:100330007F417F0011241FBECFEFCDBFDFE7DEBFBF
:1003400010E4A0E0B0E4ECECFEE000E00BBF02C083
:1003500007900D92AE30B107D9F724E4AEE0B0E4D7
:1003600001C01D92A731B207E1F70E94BB010C94B6
:1003700064070C9400000F930E94CB0220E048E039
:1003800065E084EF90E00E94190660E08EE10E9433
:10039000C20280E090E40E944D072FEF4AE060E245
:1003A0008DE20E94C7042FEF42E060E28DE20E94DE
:1003B000C7042FEF4AE060E285E50E94C7042FEFF3
:1003C00042E060E285E50E94C7040FEF22E345E5C5
:1003D00062E38DE20E94340427E044E660E08EE1AF
:1003E0000E9465050E9455050E94940280E090E0FD
:1003F0000F91089580E090910509907C31F08091F3
:10040000050984FD07C081E008C0909105099C7032
:1004100019F403C082E001C084E0882361F30895E9
:100420001092E505E0E0F9E088E4868381E08383CB
:100430001782108685830895FF920F931F93CF93A1
:10044000DF93C62F8A01D22F8E7F809307090E94E7
:10045000FA01813011F5C09308090E94FA01813038
:10046000F1F4DD23F1F00115110579F480E01CC0F1
:10047000F8018081809308090E94FA01813099F483
:10048000CF5F0F5F1F4FDF2D01C0C0E0FF24FA9444
:10049000FD0ED111EDCF8C2F07C08FEF05C08FEF70
:1004A00003C080E001C08C2FDF91CF911F910F918D
:1004B000FF90089583E080930409089566956695FA
:1004C0006695E82FF0E080E8689FE00DF11D1124AB
:1004D000E95EFF4B40830895669566956695E82F23
:1004E000F0E080E8689FE00DF11D1124E95EFF4B0C
:1004F00080810895242FAB01682F88E70E941C0299
:100500000E945A020895CF93DF931F92CDB7DEB7B2
:10051000898341E0BE016F5F7F4F80E00E947A02D5
:100520000F90DF91CF910895CF9381E20E948302D3
:1005300080E00E9483028FE70E94830282E20E9491
:10054000830280E00E94830287E00E948302C0E071
:100550000BC080E1C89FB0011124695E7F4B40E170
:1005600080E40E947A02CF5FC03498F3CF9108955F
:10057000882314F080930E400895803410F4809303
:100580000F400895CF93C62F0E94B8028C2F0E946F
:10059000BD02CF9108952FEF81EE94E0215080406D
:1005A0009040E1F700C000000E9410028EEA0E9415
:1005B000830285ED0E94830280EF0E94830288EA15
:1005C0000E9483028FE30E94830283ED0E948302D4
:1005D00080E00E9483028DE80E94830284E10E94F1
:1005E000830280E40E94830280E20E94830280E012
:1005F0000E94830281EA0E94830288EC0E948302A7
:100600008AED0E94830282E10E94830281E80E94B7
:1006100083028FEF0E94830289ED0E94830281EFA3
:100620000E9483028BED0E94830280E20E9483027B
:1006300084EA0E94830286EA0E9483028EE20E947C
:1006400083028FEA0E94830260E080E00E94C2027F
:10065000EEE0F0E486EA8283178216821582118228
:1006600010820895FF920F931F93CF93DF93C62FAD
:10067000142F0E94C202EEE0F0E4F180D0816F2DD1
:100680008D2F0E946C021F3F79F4C77001E010E0CB
:1006900020E030E004C0000F111F221F331FCA9555
:1006A000D2F7482F402B0FC0C77001E010E020E0C8
:1006B00030E004C0000F111F221F331FCA95D2F76C
:1006C0000095402F48236F2D8D2F0E945E02DF91F1
:1006D000CF911F910F91FF9008956F927F928F920B
:1006E0009F92AF92BF92CF92DF92EF92FF920F93C1
:1006F0001F93CF93DF9388230CF4A7C044230CF4FB
:10070000A4C0603408F0A1C0203408F09EC0261BAD
:1007100099249394920E481BD1E0D40F962F977092
:10072000162F191BE92CF12C28E030E0291B310988
:10073000E216F3067CF428E030E02E193F094FEF73
:1007400050E06A0102C0D594C7942A95E2F72C2D97
:10075000B92C04C028E0B22EB91A2FEFA82EC22E51
:10076000D12C02C0CC0CDD1C9A95E2F76C2C612FC9
:100770000E94C202812C19C0EEE0F0E47180C081B9
:10078000672D8C2F0E946C020F3F19F4462D482BC9
:1007900003C04C2D4095482381E08C0F80930E4080
:1007A000672D8C2F0E945E0283948D1628F316C04D
:1007B00088E0B80E185F612F8A2D0E94C202C0E047
:1007C0000BC0EEE0F0E46181808191E0980F9083AE
:1007D000402F0E945E02CF5FCD1798F38B2D90E0E3
:1007E0009C01285F3F4FE216F30614F7B91468F531
:1007F000E81AF90A8FEF90E002C0880F991FEA9477
:10080000E2F7E82EE09468E0610F8A2D0E94C202B0
:1008100010E019C0EEE0F0E4F180C0816F2D8C2F64
:100820000E946C020F3F19F44E2D482B03C04E2D31
:100830004095482381E08C0F80930E406F2D8C2FC4
:100840000E945E021F5F1D1728F3DF91CF911F9159
:100850000F91FF90EF90DF90CF90BF90AF909F905F
:100860008F907F906F9008958F929F92AF92BF92DA
:10087000CF92DF92EF92FF920F931F93CF93DF936C
:10088000C82FD62F142F88230CF474C044230CF4E3
:1008900071C0603408F06EC0203408F06BC084135F
:1008A0000AC0261710F4D22F262F4C2F6D2F8C2F15
:1008B0000E946D035FC062130EC0481748F4C42F36
:1008C000182F06C0402F6D2F8C2F0E943203CF5F50
:1008D0001C17C0F74FC0261728F4C62ED12CC21AF9
:1008E000D10804C0C22ED12CC61AD1081C1728F476
:1008F000AC2EB12CA11AB10804C0A12EB12CAC1A97
:10090000B108AC14BD0434F4812F122F282F8C2F82
:10091000CD2FD82F1C1730F48D2FD22F282F8C2FAE
:10092000C12F182F912E9C1AD21718F4E22EED1A0F
:1009300002C0ED2EE21AF92CF694D21718F488248E
:10094000839416C088248A9413C0AC14BD0434F474
:10095000402F6C2F8D2F0E94320305C0402F6D2F2A
:100960008C2F0E943203FE1812F4D80DF90CCF5FC1
:100970001C1758F7DF91CF911F910F91FF90EF90C7
:10098000DF90CF90BF90AF909F908F9008956F921F
:100990007F928F929F92AF92BF92CF92DF92EF920F
:1009A000FF920F931F93CF93DF93E42FF0E0DF01CB
:1009B000A80FB11DA038B1050CF068C0DF01A60F6B
:1009C000B11DA034B1050CF061C0C22F762E882E67
:1009D000EE0FFF1F81E090E06C01CE1ADF0AD42FEA
:1009E000AA24A394B12CE12CF12C10E04CC0912E40
:1009F000970C4C2F692D0D2F080D802F0E9432036C
:100A00004C2F692D982C9D1A892D0E943203672C3A
:100A1000611A4C2F662D892D0E9432034C2F662DB2
:100A2000802F0E943203912E980C4C2F0D2F070D12
:100A3000602F892D0E943203682C611A4C2F602F81
:100A4000862D0E9432034C2F072D0D1B602F862D03
:100A50000E9432034C2F602F892D0E9432031F5FAA
:100A6000EA0CFB1C82E0A80EB11CC701880F991F7D
:100A70008C0D9D1D1816190634F4D150EC0CFD1C7C
:100A800082E0C80ED11CD11708F0B1CFDF91CF9111
:100A90001F910F91FF90EF90DF90CF90BF90AF909C
:100AA0009F908F907F906F90089580911040873A2B
:100AB00021F486EA8093104003C087EA80931040B7
:100AC000809110400E94830208957F928F929F929E
:100AD000AF92BF92CF92DF92EF92FF920F931F934C
:100AE000CF93DF93982E481BEE24E394E40E822EDE
:100AF000861A8394262F2770B62EB21AC82CD12CB2
:100B000088E090E0821B9109C816D9066CF448E091
:100B100050E04C195D098FEF90E002C095958795E4
:100B20004A95E2F7A82C04C088E0A82EA21A8FEFFD
:100B3000782E01C0770C2A95EAF76B2D892D0E943B
:100B4000C202D0E014C00EE010E4F801F180C081D0
:100B50006F2D8C2F0E946C02472D482781E08C0F4F
:100B6000F80180836F2D8C2F0E945E02DF5FDE15FF
:100B700050F31FC0F8E0AF0EBF0E6B2D892D0E9401
:100B8000C202D0E014C00EE010E4F801F180C08190
:100B90006F2D8C2F0E946C02482F409581E08C0FA6
:100BA000F80180836F2D8C2F0E945E02DF5FDE15BF
:100BB00050F38A2D90E09C01285F3F4FC216D30668
:100BC000CCF6A81440F5C81AD90A8FEF90E002C0FD
:100BD000880F991FCA94E2F7D82ED09468E06B0D65
:100BE000892D0E94C202D0E014C00EE010E4F8018A
:100BF000F180C0816F2D8C2F0E946C024D2D4827F3
:100C000081E08C0FF80180836F2D8C2F0E945E0293
:100C1000DF5FDE1550F3DF91CF911F910F91FF90B1
:100C2000EF90DF90CF90BF90AF909F908F907F908C
:100C300008956623E4F04034D0F42230C0F4EEE0AE
:100C4000F0E4838394836583468350E041505109E7
:100C5000CA0199230CF407969595879595958795E4
:100C600095958795EEE0F0E48F5F87832087089560
:100C70004F925F926F927F928F929F92AF92BF92AC
:100C8000CF92DF92EF92FF920F931F93CF93DF9358
:100C9000AEE0B0E45C9011964C901197805215969E
:100CA0009C91159717962C911797929F900111245C
:100CB0002F5F3F4F829FA001839F500D11241396F9
:100CC000ED91FC9114975A018FEFA81AB80AE40F1E
:100CD000F51F7490842D8770982E642C812C5FC032
:100CE000662D852D0E94C2027501E80CF11C67017A
:100CF00081E0C81AD10810E041C080911140909164
:100D00001240FC01EE0DFF1D2491492D50E030E012
:100D1000092C02C0220F331F0A94E2F7022F882009
:100D2000A1F0FC01EC0DFD1DE49188E090E0841B36
:100D3000950BF0E002C0F595E7958A95E2F70E2F46
:100D4000022B80911540C80ED11C80911640813035
:100D500039F4EEE0F0E4618180810E946C02082B9E
:100D6000CEE0D0E46981888191E0980F9883402F8C
:100D70000E945E028F81E80EF11C1F5F171508F4B8
:100D8000BCCF80911640811107C0EEE0F0E440E056
:100D9000618180810E945E0288E0680E8394809168
:100DA0001540881608F49CCF242D26952695269567
:100DB00030E08091144090E0840D911D0197AC01CA
:100DC00012F4495F5F4F5595479555954795559551
:100DD00047952417350709F449C08FE3861508F4B1
:100DE00045C0662D852D0E94C202A80CB11C81E071
:100DF000A81AB10810E02DC0AEE0B0E41396ED9152
:100E0000FC911497EA0DFB1DC49188E090E08919CC
:100E10009109D0E002C0D595C7958A95E2F74C2F8D
:100E200018968C911897813039F4FD016181808189
:100E30000E946C024C2F482BCEE0D0E4698188815F
:100E400091E0980F98830E945E028F81A80EB11CDA
:100E50001F5F171588F280911640811107C0EEE0E0
:100E6000F0E440E0618180810E945E02852D870D63
:100E7000642D8F5F0E94C202DF91CF911F910F916D
:100E8000FF90EF90DF90CF90BF90AF909F908F90AA
:100E90007F906F905F904F900895CF93DF93EC0118
:100EA0000DC0EEE0F0E49081258130E0290F311D86
:100EB0002038310534F421960E943806888181114A
:0C0EC000F0CFDF91CF910895F894FFCFA0
:0E0ECC00476F6564656D6964646167210000AD
:00000001FF
