:100000000C94A0010C94BF010C94BF010C94BF018F
:100010000C94BF010C94BF010C94BF010C94BF0160
:100020000C94BF010C94BF010C94BF010C94BF0150
:100030000C94BF010C94BF010C94BF010C94BF0140
:100040000C94BF010C94BF010C94BF010C94BF0130
:100050000C94BF010C94BF010C94BF010C94BF0120
:100060000C94BF010C94BF010C94BF010C94BF0110
:100070000C94BF010C94BF010C94BF010C94BF0100
:100080000C94BF010C94BF010C94BF010C94BF01F0
:100090000C94BF010C94BF010C94BF010C94BF01E0
:1000A0000C94BF010C94BF010C94BF010C94BF01D0
:1000B0000C94BF010C94BF010C94BF010C94BF01C0
:1000C0000C94BF010C94BF010C94BF010C94BF01B0
:1000D0000C94BF010C94BF010C94BF010C94BF01A0
:1000E0000C94BF010C94BF010C94BF010C94BF0190
:1000F0000C94BF016364696E6F70737578585B0010
:100100000500000000000500005F0000050007007A
:10011000070005147F147F1405242A7F2A12052363
:10012000130864620536495620500508070300008D
:1001300005001C224100050041221C000514083E58
:1001400008140508083E08080500B07000000508FE
:100150000808080805006060000005201008040277
:10016000053E5149453E0500427F40000572494920
:100170004946052141494D33051814127F100527C2
:1001800045454539053C4A49493105412111090791
:1001900005364949493605464949291E05000014D6
:1001A0000000050040340000050814224100051439
:1001B00014141414054122140800050201590906FB
:1001C000053E415D594E057C1211127C057F49495F
:1001D0004936053E41414122057F4141413E057F6F
:1001E00049494949057F09090909053E41415173BA
:1001F000057F0808087F0500417F41000520404138
:100200003F01057F08142241057F40404040057FA3
:10021000020C027F057F0408107F053E4141413EEC
:10022000057F09090906053E4151215E057F09192F
:1002300029460526494949320501017F0101053F4B
:100240004040403F051F2040201F053F4038403FB1
:100250000563140814630503047804030561514918
:10026000454305007F4141000502040810200500B8
:1002700041417F0005040201020405404040404026
:1002800005070B000000052054547840057F2844E2
:10029000443805384444442805384444287F053808
:1002A000545454180500087E09020518A4A49C782B
:1002B000057F080404780500447D40000520404087
:1002C0003D00057F102844000500417F4000057C6B
:1002D00004780478057C08040478053844444438DC
:1002E00005FC182424180518242418FC057C08048F
:1002F00004080548545454240504043F4424053C90
:100300004040207C051C2040201C053C4030403CE7
:10031000054428102844054C9090907C0544645472
:100320004C44050008364100050000770000050038
:100330004136080005040204080405007F417F00DF
:1003400011241FBECFEFCDBFDFE7DEBF10E4A0E07A
:10035000B0E4E8E0F7E100E00BBF02C007900D92C7
:10036000A234B107D9F724E4A2E4B0E401C01D929D
:10037000AD34B207E1F70E940C020C94820B0C948E
:10038000000080E28093A204E2EEF5E080818061CB
:1003900080838091424090914340892B49F4E0E46E
:1003A000F8E08BE09AE18087918782E2878308C03A
:1003B000E0E4F8E08CE292E08087918783E0878335
:1003C000E0E4F8E08681806886830895809144089F
:1003D0008823E4F780914008089565EA80E890E07A
:1003E0000E947C0B8091650084FFFCCF60E081E679
:1003F00090E00E947C0B63E880E690E00E947C0B1A
:100400008091650080FDFCCF609180006F7780E86F
:1004100090E00E947C0B0895CF93DF93CDB7DEB7B9
:10042000C856D109CDBFDEBF0E94ED010E94C101B7
:100430000E94850320E048E065E080E091E00E94B2
:10044000EC0361E081E00E947C0380914240909146
:100450004340892B29F480E090E40E94200504C0E9
:1004600081E190E40E9420050E944E03E12CF12CD2
:1004700010E00E94E6018A3081F08D3071F091E049
:10048000910FE1E0F0E0EC0FFD1FE10FF11D808323
:10049000913510F4192F01C010E08A3051F7CE01C8
:1004A0000196FC01E10FF11D10829E012B593F4F77
:1004B0003F932F932E5F3F4F3F932F9322E230E4E1
:1004C0003F932F939F938F930E946005CDBFDEBF14
:1004D000029771F68091424090914340892B99F4A4
:1004E000A7968EAD9FADA7979C01220F331F880F53
:1004F000991F880F991F880F991F820F931FA79626
:100500008EAF9FAFA797A9964EAD5FADA99788EE26
:1005100093E0489F9001499F300D589F300D112462
:10052000A7968EAD9FADA797820F931F9F938F9332
:10053000FF92EF9286E390E49F938F938E010F5A80
:100540001F4F1F930F930E9437056EE18AE00E94B0
:100550007C03C8010E9420050E944E033FEFE31A6E
:10056000F30ACDBFDEBF84CF80E090910509907C77
:1005700031F08091050984FD07C081E008C09091A9
:1005800005099C7019F403C082E001C084E088234F
:1005900061F308951092E505E0E0F9E088E48683D0
:1005A00081E083831782108685830895FF920F93DD
:1005B0001F93CF93DF93C62F8A01D22F8E7F809314
:1005C00007090E94B402813011F5C09308090E9406
:1005D000B4028130F1F4DD23F1F00115110579F455
:1005E00080E01CC0F8018081809308090E94B40259
:1005F000813099F4CF5F0F5F1F4FDF2D01C0C0E046
:10060000FF24FA94FD0ED111EDCF8C2F07C08FEF90
:1006100005C08FEF03C080E001C08C2FDF91CF9128
:100620001F910F91FF90089583E08093040908952E
:10063000669566956695E82FF0E080E8689FE00D86
:10064000F11D1124E35BFF4B408308956695669589
:100650006695E82FF0E080E8689FE00DF11D112419
:10066000E35BFF4B80810895242FAB01682F88E75F
:100670000E94D6020E9414030895CF93DF931F9225
:10068000CDB7DEB7898341E0BE016F5F7F4F80E069
:100690000E9434030F90DF91CF910895CF9381E2B0
:1006A0000E943D0380E00E943D038FE70E943D03CE
:1006B00082E20E943D0380E00E943D0387E00E94A9
:1006C0003D03C0E00BC080E1C89FB0011124635B13
:1006D0007F4B40E180E40E943403CF5FC03498F345
:1006E000CF910895882314F0809344400895803476
:1006F00010F4809345400895CF93C62F0E94720353
:100700008C2F0E947703CF9108952FEF81EE94E014
:10071000215080409040E1F700C000000E94CA02D2
:100720008EEA0E943D0385ED0E943D0380EF0E940A
:100730003D0388EA0E943D038FE30E943D0383ED61
:100740000E943D0380E00E943D038DE80E943D032E
:1007500084E10E943D0380E40E943D0380E20E9408
:100760003D0380E00E943D0381EA0E943D0388EC46
:100770000E943D038AED0E943D0382E10E943D03F9
:1007800081E80E943D038FEF0E943D0389ED0E94A6
:100790003D0381EF0E943D038BED0E943D0380E20B
:1007A0000E943D0384EA0E943D0386EA0E943D03C5
:1007B0008EE20E943D038FEA0E943D0360E080E0EC
:1007C0000E947C03E4E4F0E486EA828317821682C6
:1007D00015821182108208956623E4F04034D0F42B
:1007E0002230C0F4E4E4F0E4838394836583468399
:1007F00050E041505109CA0199230CF40796959590
:1008000087959595879595958795E4E4F0E48F5FB6
:100810008783208708954F925F926F927F928F9285
:100820009F92AF92BF92CF92DF92EF92FF920F937F
:100830001F93CF93DF93A4E4B0E45C9011964C90A7
:100840001197805215969C91159717962C91179792
:10085000929F900111242F5F3F4F829FA001839FA1
:10086000500D11241396ED91FC9114975A018FEFBE
:10087000A81AB80AE40FF51F7490842D8770982E7B
:10088000642C812C5FC0662D852D0E947C03750130
:10089000E80CF11C670181E0C81AD10810E041C0E2
:1008A0008091474090914840FC01EE0DFF1D24913E
:1008B000492D50E030E0092C02C0220F331F0A946A
:1008C000E2F7022F8820A1F0FC01EC0DFD1DE49160
:1008D00088E090E0841B950BF0E002C0F595E79569
:1008E0008A95E2F70E2F022B80914B40C80ED11C47
:1008F00080914C40813039F4E4E4F0E461818081FE
:100900000E942603082BC4E4D0E46981888191E029
:10091000980F9883402F0E9418038F81E80EF11CD6
:100920001F5F171508F4BCCF80914C40811107C0A0
:10093000E4E4F0E440E0618180810E94180388E0F3
:10094000680E839480914B40881608F49CCF242D28
:1009500026952695269530E080914A4090E0840DBA
:10096000911D0197AC0112F4495F5F4F5595479572
:1009700055954795559547952417350709F449C06E
:100980008FE3861508F445C0662D852D0E947C03F3
:10099000A80CB11C81E0A81AB10810E02DC0A4E495
:1009A000B0E41396ED91FC911497EA0DFB1DC491F0
:1009B00088E090E089199109D0E002C0D595C795EB
:1009C0008A95E2F74C2F18968C911897813039F45C
:1009D000FD01618180810E9426034C2F482BC4E4D5
:1009E000D0E46981888191E0980F98830E94180370
:1009F0008F81A80EB11C1F5F171588F280914C40A3
:100A0000811107C0E4E4F0E440E0618180810E944C
:100A10001803852D870D642D8F5F0E947C03DF9165
:100A2000CF911F910F91FF90EF90DF90CF90BF90EB
:100A3000AF909F908F907F906F905F904F900895B0
:100A4000CF93DF93EC010DC0E4E4F0E490812581C5
:100A500030E0290F311D2038310534F421960E94F1
:100A60000B0488818111F0CFDF91CF9108950F930E
:100A70001F93CF93DF93CDB7DEB72E97CDBFDEBFE9
:100A80000D891E8986E08C8309831A838FEF9FE787
:100A90008D839E83AE01475E5F4F6F89788DCE0157
:100AA00001960E947C05EF81F885E00FF11F10820E
:100AB0002E96CDBFDEBFDF91CF911F910F9108958C
:100AC000CF93DF93CDB7DEB72E97CDBFDEBF85E0E6
:100AD0008C838B899C8989839A83AE01495E5F4FA1
:100AE0006D897E89CE0101960E9439092E96CDBF6F
:100AF000DEBFDF91CF9108952F923F924F925F9288
:100B00006F927F928F929F92AF92BF92CF92DF921D
:100B1000EF92FF920F931F93CF93DF93CDB7DEB782
:100B20002B97CDBFDEBF6C017B018A01FC011682D1
:100B30001782838181FFCCC1CE0101963C01F60171
:100B40009381F70193FD859193FF81917F01882324
:100B500009F4BAC1853239F493FD859193FF8191EF
:100B60007F01853229F4B60190E00E94C60AE7CFE2
:100B7000912C212C312CFFE1F315D8F08B3279F038
:100B800038F4803279F08332A1F4232D20611DC026
:100B90008D3261F0803369F4232D216016C0832DDE
:100BA0008260382EE32DE4603E2E2AC0F32DF860DB
:100BB0001DC037FC2DC020ED280F2A3040F08E32AA
:100BC000B9F436FC81C1232D2064322E19C036FEC3
:100BD00006C08AE0989E200D1124922E11C0EAE0F2
:100BE0002E9E200D1124222EF32DF0623F2E08C0E0
:100BF0008C3621F4832D8068382E02C0883641F46B
:100C0000F70193FD859193FF81917F018111B3CF0E
:100C1000982F9F7D9554933028F40C5F1F4F9FE3CE
:100C200099830DC0833631F0833771F0833509F035
:100C300059C021C0F801808189830E5F1F4F88242D
:100C40008394912C530113C02801F2E04F0E511CE4
:100C5000F801A080B18036FE03C0692D70E002C0AB
:100C60006FEF7FEFC5010E947D0A4C018201F32DD9
:100C7000FF773F2E16C0280122E0420E511CF801DA
:100C8000A080B18036FE03C0692D70E002C06FEF16
:100C90007FEFC5010E94720A4C01F32DF0683F2ED0
:100CA000820133FC1BC0822D90E088169906B0F4B7
:100CB000B60180E290E00E94C60A2A94F4CFF501C2
:100CC00037FC859137FE81915F01B60190E00E946B
:100CD000C60A21102A9421E0821A910881149104F5
:100CE00071F7E8C0843611F0893641F5F80137FE16
:100CF00007C060817181828193810C5F1F4F08C0A2
:100D000060817181072E000C880B990B0E5F1F4FBD
:100D1000F32DFF763F2E97FF09C090958095709533
:100D200061957F4F8F4F9F4FF0683F2E2AE030E054
:100D3000A3010E941B0B882E861845C0853731F40D
:100D4000232D2F7EB22E2AE030E025C0932D997FEF
:100D5000B92E8F36C1F018F4883579F0B5C08037D8
:100D600019F0883721F0B0C0E92FE061BE2EB4FE43
:100D70000DC0FB2DF460BF2E09C034FE0AC0292F20
:100D80002660B22E06C028E030E005C020E130E049
:100D900002C020E132E0F801B7FE07C06081718136
:100DA000828193810C5F1F4F06C06081718180E05A
:100DB00090E00E5F1F4FA3010E941B0B882E861828
:100DC000FB2DFF773F2E36FE0DC0232D2E7FA22E4A
:100DD000891458F434FE0BC032FC09C0832D8E7E7A
:100DE000A82E05C0B82CA32C03C0B82C01C0B92C68
:100DF000A4FE0FC0FE01E80DF11D8081803321F4B7
:100E00009A2D997EA92E09C0A2FE06C0B394B39470
:100E100004C08A2D867809F0B394A3FC11C0A0FE0B
:100E200006C0B21488F4280C922C9B180EC0B21481
:100E300060F4B60180E290E00E94C60AB394F7CF56
:100E4000B21418F42B1802C0982C212CA4FE10C048
:100E5000B60180E390E00E94C60AA2FE17C0A1FC82
:100E600003C088E790E002C088E590E0B6010CC0BE
:100E70008A2D867859F0A1FE02C08BE201C080E283
:100E8000A7FC8DE2B60190E00E94C60A891438F4EE
:100E9000B60180E390E00E94C60A9A94F7CF8A9444
:100EA000F301E80DF11D8081B60190E00E94C60AB1
:100EB0008110F5CF222009F442CEB60180E290E005
:100EC0000E94C60A2A94F6CFF6018681978102C055
:100ED0008FEF9FEF2B96CDBFDEBFDF91CF911F919C
:100EE0000F91FF90EF90DF90CF90BF90AF909F90C9
:100EF0008F907F906F905F904F903F902F900895CC
:100F000020FD09C0FC0123FD05C022FF02C0738340
:100F1000628351834083089544FD17C046FD17C086
:100F2000AB01BC01DA01FB01AA0FBB1FEE1FFF1FC3
:100F30001094D1F74A0F5B1F6E1F7F1FCB01BA01C0
:100F4000660F771F881F991F09C033E001C034E086
:100F5000660F771F881F991F3150D1F7620F711DDF
:100F6000811D911D08950F931F93CF93DF938C01E3
:100F7000C8010E94880AEC0197FD08C00E945E0A21
:100F8000892BB1F7B801CE010E94020BCE01DF918F
:100F9000CF911F910F9108958F929F92AF92BF9220
:100FA000EF92FF920F931F93CF93DF938C01D62F75
:100FB0007A01B22E0E94880A9C0133272B32310518
:100FC00031F02D32310561F48B2D8068B82ED1506F
:100FD00011F480E068C0C8010E94880A97FDF9CF2B
:100FE000CB2DCD7F2B2D207309F58033F9F4AA2466
:100FF000AA94AD0E09F443C0C8010E94880A97FD67
:101000003EC09C012F7D33272835310549F4C26449
:10101000D250A9F1C8010E94880A97FF07C02FC0CB
:10102000B6FE02C0C26001C0C261DA2D812C912CD3
:10103000540120ED280F283080F0C4FF04C0B8010F
:101040000E94020B19C02A3040F0C6FFF8CF2F7D56
:101050003FEE320F363098F727504C2FC501B401C0
:101060000E948C074B015C01C260D15059F0C8014D
:101070000E94880A97FFDDCFC1FD04C0AACF812C52
:10108000912C5401C7FF08C0B094A0949094809410
:10109000811C911CA11CB11C2C2FB501A401C701FE
:1010A0000E94800781E0DF91CF911F910F91FF9007
:1010B000EF90BF90AF909F908F9008955F926F9246
:1010C0007F928F929F92AF92BF92CF92DF92EF92D8
:1010D000FF920F931F93CF93DF93CDB7DEB7A09707
:1010E000CDBFDEBF5C01962E7A01F9018E010F5F44
:1010F0001F4F680180E2D8011D928A95E9F7D5015A
:1011000013968C9080E090E0612C712C30E061E0CF
:1011100070E083FC259183FE21918F01522E2111D5
:1011200003C080E090E092C02E3511F4009751F199
:10113000432F50E0481759073CF42D3559F12D3213
:1011400019F4772009F103C0772009F46AC0452D0E
:10115000469546954695D601A40FB11D452D47707D
:101160008B0102C0000F111F4A95E2F7A8015C91A4
:10117000452B4C93651459F0561410F45394E7CF53
:101180005A94E5CF31E004C07724739401C0712CE8
:101190000196BFCF772019F08E8180628E83311146
:1011A00003C08824839417C0F6019E012F5D3F4F32
:1011B0008081809581932E173F07D1F7F2CFE114FC
:1011C000F10429F0D7018C93F70131967F019A94AD
:1011D000812C9920F9F0C5010E94880A97FD18C05A
:1011E000FC01FF2723E0F595E7952A95E1F7EC0D43
:1011F000FD1D208130E0AC014770552702C03595B8
:1012000027954A95E2F720FDDACFB5010E94020B3F
:10121000811087CFE114F10411F0D7011C92C801AD
:1012200015C0422F469546954695D601A40FB11D8F
:10123000422F47708B0102C0000F111F4A95E2F741
:10124000A8015C91452B4C93622EA2CFA096CDBFF6
:10125000DEBFDF91CF911F910F91FF90EF90DF9054
:10126000CF90BF90AF909F908F907F906F905F9046
:1012700008955F926F927F928F929F92AF92BF92EA
:10128000CF92DF92EF92FF920F931F93CF93DF9352
:101290006C01EB015A01FC0116821782512CF601F8
:1012A000E380FE01E3FC8591E3FE8191182FEF01BD
:1012B000882309F4EEC090E00E945E0A892B21F099
:1012C000C6010E94B307EBCF153241F4FE01E3FCE7
:1012D0001591E3FE1191EF01153281F4C6010E94D0
:1012E000880A97FDD4C0412F50E09C013327241772
:1012F0003507A9F2B6010E94020BCBC01A3239F4AD
:10130000E3FC1591E3FE1191EF0101E001C000E063
:10131000F12C20ED210F2A3080F402606F2D70E057
:1013200080E090E040E20E948C07F62EFE01E3FC94
:101330001591E3FE1191EF01ECCF01FF03C0F11015
:1013400003C0A7C0FF24FA94183619F01C3651F0D8
:1013500010C0FE01E3FC1591E3FE1191EF01183678
:1013600041F408600460FE01E3FC1591E3FE119175
:10137000EF01112309F48DC0612F70E084EF90E03C
:101380000E94670A892B09F484C000FD07C0F5019B
:1013900080809180C50102965C0102C0812C912C55
:1013A0001E3651F4F6014681578160E070E0202F2F
:1013B000C4010E94800773CF1336A9F401FD02C057
:1013C000FF24F394C6010E94880A97FD60C081142F
:1013D000910429F0F4018083C40101964C01FA9430
:1013E000F110F0CF50C01B3559F49E01A4016F2DB0
:1013F000C6010E945E08EC01892B09F044C03EC082
:10140000C6010E94B30797FD42C01F3661F128F460
:10141000143639F1193651F128C0133771F01537E8
:1014200001F123C08114910429F0F4016082C40108
:1014300001964C01FA94FF2071F0C6010E94880ABF
:101440003C0197FD08C00E945E0A892B59F3B60142
:10145000C3010E94020B81149104A9F0F4011082CF
:1014600012C0006203C0006101C00064202FA4010B
:101470006F2DC6010E94CC07811105C0F601838142
:10148000807329F406C000FD0ACF539408CF55207D
:1014900019F0852D90E002C08FEF9FEFDF91CF9183
:1014A0001F910F91FF90EF90DF90CF90BF90AF9082
:1014B0009F908F907F906F905F90089591110C9402
:1014C000790B803219F089508550C8F70895FC01D6
:1014D0000590061621F00020D9F7C0010895319734
:1014E000CF010895FC010590615070400110D8F7BC
:1014F000809590958E0F9F1F0895FC01615070405C
:1015000001900110D8F7809590958E0F9F1F089538
:10151000CF93DF93EC012B8120FF33C026FF0AC05D
:101520002F7B2B838E819F8101968E839F838A815F
:1015300090E029C022FF0FC0E881F9818081082E48
:10154000000C990B009719F420622B831AC0319676
:10155000E883F9830EC0EA85FB85099597FF09C0EA
:101560002B81019611F080E201C080E1822B8B83F8
:1015700008C02E813F812F5F3F4F2E833F839927E5
:1015800002C08FEF9FEFDF91CF9108950F931F93CC
:10159000CF93DF93FB01238121FD03C08FEF9FEFEA
:1015A0002CC022FF16C04681578124813581421705
:1015B000530744F4A081B1819D012F5F3F4F2083E9
:1015C00031838C93268137812F5F3F4F268337836A
:1015D00014C08B01EC01FB010084F185E02D09951D
:1015E000892BE1F6D80116968D919C91179701965B
:1015F00016968D939C931797CE01DF91CF911F91F3
:101600000F910895FB01238120FF12C026FD10C019
:101610008F3F3FEF930761F082832F7D2064238308
:1016200026813781215031092683378399270895F0
:101630008FEF9FEF0895FA01AA27283051F120314A
:1016400081F1E8946F936E7F6E5F7F4F8F4F9F4F56
:10165000AF4FB1E03ED0B4E03CD0670F781F891F98
:101660009A1FA11D680F791F8A1F911DA11D6A0F66
:10167000711D811D911DA11D20D009F468943F9119
:101680002AE0269F11243019305D3193DEF6CF0118
:101690000895462F4770405D4193B3E00FD0C9F7DE
:1016A000F6CF462F4F70405D4A3318F0495D31FD4B
:1016B0004052419302D0A9F7EACFB4E0A69597959E
:1016C000879577956795BA95C9F700976105710574
:1016D00008959B01AC010A2E0694579547953795BE
:1016E0002795BA95C9F7620F731F841F951FA01D18
:1016F0000895992788270895DC0128ED2093340068
:081700006C930895F894FFCFEB
:101708004465636F64696E672044534D52205632B6
:10171800004465636F64696E672044534D522056D8
:101728003500312D303A312E372E302825642E25BC
:10173800642A6B5729002535643A202535642057DB
:0217480000009F
:00000001FF
