:100000000C947D000C9442020C9442020C94420227
:100010000C9442020C9442020C9442020C94420250
:100020000C9429020C9442020C9442020C94420259
:100030000C9442020C9442020C9442020C94420230
:100040000C9442020C9442020C9442020C94420220
:100050000C9442020C9442020C9442020C94420210
:100060000C9433020C9442020C9442020C9442020F
:100070000C9442020C9442020C9484010C944202AF
:100080000C9442020C9442020C9442020C943D02E5
:100090000C9442020C9442020C9442020C944202D0
:1000A0000C9442020C9442020C9442020C944202C0
:1000B0000C9442020C942E020C9438020C944202CE
:1000C0000C9442020C9442020C9442020C944202A0
:1000D0000C9442020C9442020C9442020C94420290
:1000E0000C9442020C9442020C9442020C94420280
:1000F0000C944202400040048000809101108F7CEB
:100100008060806898ED94BF8093011011241FBE19
:10011000CFEFCDBFDFE7DEBFE4EFF0E040E019C096
:10012000B791A79137912791079107FD0EC097913D
:100130008791EF01F92FE82F0BBF07900D92A217BF
:10014000B307D9F7FE011BBE04C01D92A217B30767
:10015000E1F7E93FF40721F70E9418020C9404022A
:04016000F894FFCF41
:100164000F931F93CF93DF9340E054E0FA0114827E
:1001740020E234E0F901148280E494E0FC0114826A
:10018400C0E6D4E01C82A0E8B4E014961C92149754
:1001940000EA14E0F8011482FA011082F9011082D5
:1001A40061E0FC01608318821C92F8011082FA015C
:1001B400108A118A128A138A148A158A168A178A4F
:1001C400F901108A118A128A138A148A158A168AE6
:1001D400178AFC01108A2BE0218B128A138A148A55
:1001E400158A168A178A188A198A1A8A1B8A1C8AF7
:1001F4001D8A1E8A1F8A50961C92509751961C92F3
:10020400519752961C92529753961C925397549618
:100214001C92549755961C92559756961C92569735
:1002240057961C92F801108A118A128A138A148A2A
:10023400158A168A178AE0EEF5E01186118210827B
:10024400148282E0868317821086158212821382BA
:10025400128686E492E0809302409093034087E400
:1002640092E08093004090930140DF91CF911F91E1
:040274000F91089549
:1002780040E068ED80E690E00E941F0240E068EDF3
:1002880081E690E00E941F0240E068ED88E790E078
:100298000E941F024CE068ED88E690E00E941F0271
:1002A80040E068ED89E690E00E941F0240E068EDBA
:1002B80080E790E00E941F0240E068ED8CE790E044
:1002C8000E941F0240E068ED82E690E00E941F0253
:1002D80040E068ED83E690E00E941F0240E068ED90
:1002E80084E690E00E941F0240E068ED80E890E01C
:1002F8000E941F02E0E6F0E0858181FFFDCF0895AE
:100308001F920F920FB60F9211240BB60F922F93D4
:100318003F934F935F936F937F938F939F93AF9385
:10032800BF93EF93FF93589B05C0E0910240F09173
:1003380003400995599B05C0E0910040F0910140A8
:1003480009958FEF8BB9FF91EF91BF91AF919F9175
:100358008F917F916F915F914F913F912F910F9066
:0C0368000BBE0F900FBE0F901F90189559
:10037400E0E0FAE081EE94E080A791A712A613A62C
:1003840014A615A610A211A283E1818312821382FE
:100394001482158216821782168611861286138697
:1003A40087EA91E686A397A3178687E0808308955A
:1003B4008091280A9091290A843B910539F489E9AE
:1003C40092E08093280A9093290A06C084EB90E077
:1003D4008093280A9093290A2FE788E391E021501B
:0C03E40080409040E1F700C00000089548
:1003F00040E068ED80E191E00E941F02E0E1F1E061
:080400001282138280E00895CE
:10040800EC010E9449020E944802CE010E944A0261
:06041800CE010E94440227
:10041E000E943C010E94B2000E94BA010E94F801A3
:02042E0008952F
:0E0430000E940F028AED91E00E942402FFCF8D
:0A043E001BBEFC0164BF408308955B
:0A0448008093004090930140089556
:0A0452008F938FEF83B98F911895F7
:0A045C008F938FEF87B98F911895E9
:0A0466008F938FEF8FB98F911895D7
:0A0470008F938FEF83BB8F911895D7
:0A047A008F938FEF87BB8F911895C9
:040484000C940000D4
:040488000E94B0001E
:02048C000895D1
:02048E000895CF
:020490000895CD
:020492000895CB
:020494000895C9
:02000004008278
:090000000000000000C00800002F
:00000001FF
