:100000000C949A010C94B9010C94B9010C94B901A7
:100010000C94B9010C94B9010C94B9010C94B90178
:100020000C94B9010C94B9010C94B9010C94B90168
:100030000C94B9010C94B9010C94B9010C94B90158
:100040000C94B9010C94B9010C94B9010C94B90148
:100050000C94B9010C94B9010C94B9010C94B90138
:100060000C94B9010C94B9010C94B9010C94B90128
:100070000C94B9010C94B9010C94B9010C94B90118
:100080000C94B9010C94B9010C94B9010C94B90108
:100090000C94B9010C94B9010C94B9010C94B901F8
:1000A0000C94B9010C94B9010C94B9010C94B901E8
:1000B0000C94B9010C94B9010C94B9010C94B901D8
:1000C0000C94B9010C94B9010C94B9010C94B901C8
:1000D0000C94B9010C94B9010C94B9010C94B901B8
:1000E0000C94B9010C94B9010C94B9010C94B901A8
:1000F0000C94B9010500000000000500005F00003D
:1001000005000700070005147F147F1405242A7FCB
:100110002A12052313086462053649562050050843
:100120000703000005001C224100050041221C00BD
:100130000514083E08140508083E08080500B070BC
:100140000000050808080808050060600000052098
:1001500010080402053E5149453E0500427F40001B
:10016000057249494946052141494D330518141284
:100170007F10052745454539053C4A494931054128
:100180002111090705364949493605464949291EBD
:10019000050000140000050040340000050814228A
:1001A000410005141414141405412214080005021A
:1001B00001590906053E415D594E057C1211127C1C
:1001C000057F49494936053E41414122057F41416C
:1001D000413E057F49494949057F09090909053E0D
:1001E00041415173057F0808087F0500417F4100A8
:1001F000052040413F01057F08142241057F404012
:100200004040057F020C027F057F0408107F053EF9
:100210004141413E057F09090906053E4151215EE4
:10022000057F091929460526494949320501017FFB
:100230000101053F4040403F051F2040201F053F72
:100240004038403F05631408146305030478040331
:1002500005615149454305007F41410005020408FD
:100260001020050041417F00050402010204054001
:100270004040404005070B000000052054547840E2
:10028000057F28444438053844444428053844440C
:10029000287F0538545454180500087E09020518B3
:1002A000A4A49C78057F080404780500447D4000E0
:1002B000052040403D00057F102844000500417F97
:1002C0004000057C04780478057C0804047805382F
:1002D0004444443805FC182424180518242418FC28
:1002E000057C080404080548545454240504043FBC
:1002F0004424053C4040207C051C2040201C053C3B
:100300004030403C054428102844054C9090907C97
:10031000054464544C44050008364100050000774C
:100320000000050041360800050402040804050029
:100330007F417F0011241FBECFEFCDBFDFE7DEBFBF
:1003400010E4A0E0B0E4E2E4FFE000E00BBF02C094
:1003500007900D92A632B107D9F724E4A6E2B0E4E3
:1003600001C01D92AF32B207E1F70E94BB010C94AD
:100370009F070C940000CF93DF93CDB7DEB7C45630
:10038000D109CDBFDEBF0E94100320E048E065E048
:1003900084EF90E00E94770360E080E00E94070312
:1003A0006894662467F8772472F8F30120859085B5
:1003B0008085269511E0212721701F922F93969515
:1003C0009695912791701F929F9386958695869515
:1003D000812781701F928F9380E090E49F938F9389
:1003E000CE0101967C019F938F930E94C204C701A6
:1003F0000E94AB0464E180E00E940703F301808562
:10040000869586958695812780FBCC24C0F8D12CD3
:10041000808586958695812780FBAA24A0F8B12C3B
:10042000C6018A0D9B1D20852695122710FB882466
:1004300080F8912C880D991D9F938F938CE090E408
:100440009F938F93FF92EF920E94C204C7010E9474
:10045000AB0463E280E00E9407038BE190E40E941A
:10046000AB040E94D902FFEF20E782E0F150204068
:100470008040E1F700C00000CDBFDEBF8DCF80E03F
:1004800090910509907C31F08091050984FD07C0A9
:1004900081E008C0909105099C7019F403C082E0C6
:1004A00001C084E0882361F308951092E505E0E03F
:1004B000F9E088E4868381E0838317821086858350
:1004C0000895FF920F931F93CF93DF93C62F8A0156
:1004D000D22F8E7F809307090E943F02813011F551
:1004E000C09308090E943F028130F1F4DD23F1F04E
:1004F0000115110579F480E01CC0F801808180931A
:1005000008090E943F02813099F4CF5F0F5F1F4FAF
:10051000DF2D01C0C0E0FF24FA94FD0ED111EDCF14
:100520008C2F07C08FEF05C08FEF03C080E001C0A4
:100530008C2FDF91CF911F910F91FF90089583E051
:10054000809304090895669566956695E82FF0E016
:1005500080E8689FE00DF11D1124E15DFF4B4083B1
:100560000895669566956695E82FF0E080E8689FA7
:10057000E00DF11D1124E15DFF4B80810895242FD2
:10058000AB01682F88E70E9461020E949F020895D4
:10059000CF93DF931F92CDB7DEB7898341E0BE01D1
:1005A0006F5F7F4F80E00E94BF020F90DF91CF917D
:1005B0000895CF9381E20E94C80280E00E94C802A1
:1005C0008FE70E94C80282E20E94C80280E00E9477
:1005D000C80287E00E94C802C0E00BC080E1C89F4B
:1005E000B0011124615D7F4B40E180E40E94BF02B5
:1005F000CF5FC03498F3CF910895882314F080938F
:1006000026400895803410F4809327400895CF93B6
:10061000C62F0E94FD028C2F0E940203CF910895E5
:100620002FEF81EE94E0215080409040E1F700C030
:1006300000000E9455028EEA0E94C80285ED0E94C9
:10064000C80280EF0E94C80288EA0E94C8028FE3B5
:100650000E94C80283ED0E94C80280E00E94C80286
:100660008DE80E94C80284E10E94C80280E40E94D2
:10067000C80280E20E94C80280E00E94C80281EAAB
:100680000E94C80288EC0E94C8028AED0E94C8023B
:1006900082E10E94C80281E80E94C8028FEF0E9496
:1006A000C80289ED0E94C80281EF0E94C8028BED4A
:1006B0000E94C80280E20E94C80284EA0E94C80226
:1006C00086EA0E94C8028EE20E94C8028FEA0E9457
:1006D000C80260E080E00E940703E6E2F0E486EAF8
:1006E00082831782168215821182108208956623F2
:1006F000E4F04034D0F42230C0F4E6E2F0E4838346
:1007000094836583468350E041505109CA0199237F
:100710000CF407969595879595958795959587956A
:10072000E6E2F0E48F5F8783208708954F925F921F
:100730006F927F928F929F92AF92BF92CF92DF92F1
:10074000EF92FF920F931F93CF93DF93A6E2B0E453
:100750005C9011964C901197805215969C9115972C
:1007600017962C911797929F900111242F5F3F4F5E
:10077000829FA001839F500D11241396ED91FC914F
:1007800014975A018FEFA81AB80AE40FF51F749056
:10079000842D8770982E642C812C5FC0662D852D4A
:1007A0000E9407037501E80CF11C670181E0C81A7B
:1007B000D10810E041C08091294090912A40FC016D
:1007C000EE0DFF1D2491492D50E030E0092C02C0B0
:1007D000220F331F0A94E2F7022F8820A1F0FC01B8
:1007E000EC0DFD1DE49188E090E0841B950BF0E09A
:1007F00002C0F595E7958A95E2F70E2F022B8091BE
:100800002D40C80ED11C80912E40813039F4E6E293
:10081000F0E4618180810E94B102082BC6E2D0E43D
:100820006981888191E0980F9883402F0E94A302EC
:100830008F81E80EF11C1F5F171508F4BCCF809163
:100840002E40811107C0E6E2F0E440E06181808142
:100850000E94A30288E0680E839480912D40881640
:1008600008F49CCF242D26952695269530E080917E
:100870002C4090E0840D911D0197AC0112F4495F6A
:100880005F4F55954795559547955595479524172D
:10089000350709F449C08FE3861508F445C0662D75
:1008A000852D0E940703A80CB11C81E0A81AB1088D
:1008B00010E02DC0A6E2B0E41396ED91FC911497E0
:1008C000EA0DFB1DC49188E090E089199109D0E000
:1008D00002C0D595C7958A95E2F74C2F18968C9152
:1008E0001897813039F4FD01618180810E94B10245
:1008F0004C2F482BC6E2D0E46981888191E0980FA3
:1009000098830E94A3028F81A80EB11C1F5F171548
:1009100088F280912E40811107C0E6E2F0E440E0C9
:10092000618180810E94A302852D870D642D8F5FD8
:100930000E940703DF91CF911F910F91FF90EF90DD
:10094000DF90CF90BF90AF909F908F907F906F90EF
:100950005F904F900895CF93DF93EC010DC0E6E2D6
:10096000F0E49081258130E0290F311D20383105D8
:1009700034F421960E94960388818111F0CFDF9193
:10098000CF9108950F931F93CF93DF93CDB7DEB729
:100990002E97CDBFDEBF0D891E8986E08C8309832B
:1009A0001A838FEF9FE78D839E83AE01475E5F4F73
:1009B0006F89788DCE0101960E94EB04EF81F88556
:1009C000E00FF11F10822E96CDBFDEBFDF91CF91D9
:1009D0001F910F9108952F923F924F925F926F92C5
:1009E0007F928F929F92AF92BF92CF92DF92EF92BF
:1009F000FF920F931F93CF93DF93CDB7DEB72B9763
:100A0000CDBFDEBF6C017B018A01FC01168217821B
:100A1000838181FFCCC1CE0101963C01F601938117
:100A2000F70193FD859193FF81917F01882309F45C
:100A3000BAC1853239F493FD859193FF81917F018D
:100A4000853229F4B60190E00E940507E7CF912C8A
:100A5000212C312CFFE1F315D8F08B3279F038F4EA
:100A6000803279F08332A1F4232D20611DC08D32B4
:100A700061F0803369F4232D216016C0832D8260DC
:100A8000382EE32DE4603E2E2AC0F32DF8601DC001
:100A900037FC2DC020ED280F2A3040F08E32B9F4FB
:100AA00036FC81C1232D2064322E19C036FE06C0CB
:100AB0008AE0989E200D1124922E11C0EAE02E9E0D
:100AC000200D1124222EF32DF0623F2E08C08C360B
:100AD00021F4832D8068382E02C0883641F4F70156
:100AE00093FD859193FF81917F018111B3CF982F61
:100AF0009F7D9554933028F40C5F1F4F9FE399839B
:100B00000DC0833631F0833771F0833509F059C059
:100B100021C0F801808189830E5F1F4F8824839450
:100B2000912C530113C02801F2E04F0E511CF80123
:100B3000A080B18036FE03C0692D70E002C06FEF67
:100B40007FEFC5010E94FA064C018201F32DFF7769
:100B50003F2E16C0280122E0420E511CF801A08051
:100B6000B18036FE03C0692D70E002C06FEF7FEFE9
:100B7000C5010E94EF064C01F32DF0683F2E820163
:100B800033FC1BC0822D90E088169906B0F4B601A4
:100B900080E290E00E9405072A94F4CFF50137FC2B
:100BA000859137FE81915F01B60190E00E940507B3
:100BB00021102A9421E0821A91088114910471F77E
:100BC000E8C0843611F0893641F5F80137FE07C0D8
:100BD00060817181828193810C5F1F4F08C06081A9
:100BE0007181072E000C880B990B0E5F1F4FF32DA0
:100BF000FF763F2E97FF09C090958095709561957F
:100C00007F4F8F4F9F4FF0683F2E2AE030E0A301C7
:100C10000E944107882E861845C0853731F4232D60
:100C20002F7EB22E2AE030E025C0932D997FB92E79
:100C30008F36C1F018F4883579F0B5C0803719F0D7
:100C4000883721F0B0C0E92FE061BE2EB4FE0DC0A0
:100C5000FB2DF460BF2E09C034FE0AC0292F266088
:100C6000B22E06C028E030E005C020E130E002C02E
:100C700020E132E0F801B7FE07C060817181828116
:100C800093810C5F1F4F06C06081718180E090E00E
:100C90000E5F1F4FA3010E944107882E8618FB2D6F
:100CA000FF773F2E36FE0DC0232D2E7FA22E8914F6
:100CB00058F434FE0BC032FC09C0832D8E7EA82E62
:100CC00005C0B82CA32C03C0B82C01C0B92CA4FEBD
:100CD0000FC0FE01E80DF11D8081803321F49A2DB3
:100CE000997EA92E09C0A2FE06C0B394B39404C095
:100CF0008A2D867809F0B394A3FC11C0A0FE06C02B
:100D0000B21488F4280C922C9B180EC0B21460F414
:100D1000B60180E290E00E940507B394F7CFB214C9
:100D200018F42B1802C0982C212CA4FE10C0B60178
:100D300080E390E00E940507A2FE17C0A1FC03C05B
:100D400088E790E002C088E590E0B6010CC08A2DEB
:100D5000867859F0A1FE02C08BE201C080E2A7FCB8
:100D60008DE2B60190E00E940507891438F4B601BF
:100D700080E390E00E9405079A94F7CF8A94F301EC
:100D8000E80DF11D8081B60190E00E9405078110F9
:100D9000F5CF222009F442CEB60180E290E00E9415
:100DA00005072A94F6CFF6018681978102C08FEF5E
:100DB0009FEF2B96CDBFDEBFDF91CF911F910F919B
:100DC000FF90EF90DF90CF90BF90AF909F908F906B
:100DD0007F906F905F904F903F902F900895FC010F
:100DE0000590615070400110D8F7809590958E0F56
:100DF0009F1F0895FC016150704001900110D8F7C9
:100E0000809590958E0F9F1F08950F931F93CF93FA
:100E1000DF93FB01238121FD03C08FEF9FEF2CC0E7
:100E200022FF16C04681578124813581421753071E
:100E300044F4A081B1819D012F5F3F4F2083318316
:100E40008C93268137812F5F3F4F2683378314C0D1
:100E50008B01EC01FB010084F185E02D0995892BC4
:100E6000E1F6D80116968D919C91179701961696EA
:100E70008D939C931797CE01DF91CF911F910F9186
:100E80000895FA01AA27283051F1203181F1E89420
:100E90006F936E7F6E5F7F4F8F4F9F4FAF4FB1E06D
:100EA0003ED0B4E03CD0670F781F891F9A1FA11D68
:100EB000680F791F8A1F911DA11D6A0F711D811D69
:100EC000911DA11D20D009F468943F912AE0269F2E
:100ED00011243019305D3193DEF6CF010895462F8D
:100EE0004770405D4193B3E00FD0C9F7F6CF462F6E
:100EF0004F70405D4A3318F0495D31FD40524193D7
:100F000002D0A9F7EACFB4E0A69597958795779593
:100F10006795BA95C9F700976105710508959B011A
:100F2000AC010A2E06945795479537952795BA95A3
:100F3000C9F7620F731F841F951FA01D0895F894B1
:020F4000FFCFE1
:100F42002533642025336420253364004572207ADA
:100F5200696A6E206E752025336400696E67656468
:060F620072756B740000C3
:00000001FF
