S01400006C61626F70647261636874322E737265635A
S11300000C947A000C9484000C9484000C94840066
S11300100C9484000C9484000C9484000C9484004C
S11300200C9484000C9484000C9484000C9484003C
S11300300C9484000C9484000C9484000C9484002C
S11300400C9484000C9484000C9484000C9484001C
S11300500C9484000C9484000C9484000C9484000C
S11300600C9484000C9484000C9484000C948400FC
S11300700C9484000C9484000C9484000C948400EC
S11300800C9484000C9484000C9484000C948400DC
S11300900C9484000C9484000C9484000C948400CC
S11300A00C9484000C9484000C9484000C948400BC
S11300B00C9484000C9484000C9484000C948400AC
S11300C00C9484000C9484000C9484000C9484009C
S11300D00C9484000C9484000C9484000C9484008C
S11300E00C9484000C9484000C9484000C9484007C
S11300F00C94840011241FBECFEFCDBFDFE7DEBF19
S11301000E9486000C94A3000C940000E0E8F4E044
S11301108081816080838091880482FD04C0809105
S1130120880481FD08C08091880482FD08C0809104
S1130130880483FD04C081E080938504ECCF81E0D2
S10D014080938604E8CFF894FFCF03
S9030000FC
