:100000000C947D000C947B030C947B030C947B0379
:100010000C947B030C94CD010C9474020C947B0320
:100020000C9462030C947B030C947B030C947B0371
:100030000C947B030C947B030C947B030C947B0348
:100040000C947B030C947B030C947B030C947B0338
:100050000C947B030C947B030C947B030C947B0328
:100060000C9471030C947B030C9414020C944402C2
:100070000C947B030C947B030C946C030C947B0317
:100080000C947B030C947B030C947B030C947603FD
:100090000C947B030C947B030C947B030C947B03E8
:1000A0000C947B030C947B030C947B030C947B03D8
:1000B0000C947B030C9467030C94A4020C947B03B4
:1000C0000C947B030C947B030C947B030C947B03B8
:1000D0000C947B030C947B030C947B030C947B03A8
:1000E0000C947B030C947B030C947B030C947B0398
:1000F0000C947B034000400F8000809101108F7CA6
:100100008060806898ED94BF8093011011241FBE19
:10011000CFEFCDBFDFE7DEBFE4EFF0E040E019C096
:10012000B791A79137912791079107FD0EC097913D
:100130008791EF01F92FE82F0BBF07900D92A217BF
:10014000B307D9F7FE011BBE04C01D92A217B30767
:10015000E1F7E93FF40721F70E9451030C943E03B5
:04016000F894FFCF41
:10016400CF93DF9340E054E0FA01148220E234E0BC
:10017400F901148280E494E0FC011482C0E6D4E026
:100184001C82A0E8B4E014961C92149760EA74E010
:10019400FB011482FA011082F9011082FC01108221
:1001A40018821C92FB011082FA01108A118A128AA9
:1001B400138A148A158A168A178AF901108A118AF1
:1001C400128A138A148A158A168A178AFC01108ADD
:1001D400118A128A138A148A158A168A178A188A27
:1001E400198A1A8A1B8A1C8A1D8A1E8A1F8A50969B
:1001F4001C92509751961C92519752961C9252976A
:1002040053961C92539754961C92549755961C924D
:10021400559756961C92569757961C92FB01108A36
:10022400118A128A138A148A158A168A178AE0EEAA
:10023400F5E01186118210821482168217821086CC
:1002440015821282138212868FE793E08093064010
:0A02540090930740DF91CF910895C9
:10025E00E0E0F2E086E0808B118A128A138A148A1B
:10026E00158A81E084A710A211A212A213A214A2D1
:10027E0015A216A217A215A616A617A610AA12AA9E
:10028E0012AE13AE16AE17AE10924002109241028D
:10029E0014AA15AA168A178A1092420210924302C5
:1002AE00109248021092490216AA108E118E10A6B4
:1002BE0011A612A613A611AA14AE15AE10924402E0
:1002CE001092450217AA10AE10924B0210924D02D8
:1002DE0010924C0210924A0210924F02109251024A
:1002EE001092500210924E0210925302109255022A
:0C02FE00109254021092520280E0089509
:10030A0040E068ED80E690E00E945D0340E068ED21
:10031A0081E690E00E945D0340E068ED88E790E0A6
:10032A000E945D034CE068ED88E690E00E945D0360
:10033A0040E068ED89E690E00E945D0340E068EDE8
:10034A0080E790E00E945D0340E068ED8CE790E072
:10035A000E945D0340E068ED82E690E00E945D0342
:10036A0040E068ED83E690E00E945D0340E068EDBE
:10037A0084E690E00E945D0340E068ED80E890E04A
:10038A000E945D03E0E6F0E0858181FFFDCF0895DC
:10039A001F920F920FB60F9211240BB60F922F9342
:1003AA003F934F935F936F937F938F939F93AF93F3
:1003BA00BF93EF93FF938091420180FF0BC080911E
:1003CA00430180FF07C0E0910C40F0910D40309747
:1003DA0009F009958091420181FF0BC08091430188
:1003EA0081FF07C0E0910A40F0910B40309709F075
:1003FA00099583E080934301FF91EF91BF91AF91FB
:10040A009F918F917F916F915F914F913F912F9122
:0E041A000F900BBE0F900FBE0F901F90189505
:100428001F920F920FB60F9211240BB60F922F93B3
:100438003F934F935F936F937F938F939F93AF9364
:10044800BF93EF93FF9381E080930D06E091024004
:10045800F0910340309709F00995FF91EF91BF9112
:10046800AF919F918F917F916F915F914F913F9144
:100478002F910F900BBE0F900FBE0F901F901895E5
:100488001F920F920FB60F9211240BB60F922F9353
:100498003F934F935F936F937F938F939F93AF9304
:1004A800BF93EF93FF9382E080930D06E0910040A5
:1004B800F0910140309709F00995FF91EF91BF91B4
:1004C800AF919F918F917F916F915F914F913F91E4
:1004D8002F910F900BBE0F900FBE0F901F90189585
:1004E8001F920F920FB60F9211240BB60F922F93F3
:1004F8003F934F935F936F937F938F939F93AF93A4
:10050800BF93EF93FF93E0910840F0910940309733
:1005180009F0099581E080935301FF91EF91BF9114
:10052800AF919F918F917F916F915F914F913F9183
:100538002F910F900BBE0F900FBE0F901F90189524
:100548001F920F920FB60F9211240BB60F922F9392
:100558003F934F935F936F937F938F939F93AF9343
:10056800BF93EF93FF939B9B05C0E0910640F091EA
:10057800074009958FEF83BBFF91EF91BF91AF9132
:100588009F918F917F916F915F914F913F912F91A3
:0E0598000F900BBE0F900FBE0F901F90189586
:1005A600E0E0F6E080818E7F808384858C7F84877F
:1005B60083E085871092024010920340109200401B
:1005C60010920140118212821382148215829BE0DE
:1005D600908790E49187128691E093871686148A15
:0C05E600158A128A138A94878083089576
:1005F200E0E4F1E081818111FDCFE0E4F1E08FEFF1
:1006020093E0848795871086118689E090E082873F
:100612009387178281E08283158289E280838189B0
:0E0622008111FDCFE0E4F1E0128A158A0895FF
:100630000E9485010E94B2000E94D3020E942F01F5
:0E0640000E94F9020E9449030E9427030895B8
:10064E0040E068ED80E191E00E945D03E0E1F1E0C1
:08065E001282138280E008956E
:100666008091100690911106809304409093054066
:0606760080930E40089580
:10067C00EC010E9481030E948003CE010E94820340
:06068C00CE010E947D0377
:10069200E0EBF0E0148283E08083128280E0089530
:0E06A2000E94180383E393E00E945803FFCFE9
:0A06B00080930240909303400895E8
:0A06BA001BBEFC0164BF40830895DD
:0A06C4008F938FEF83B98F91189583
:0A06CE008F938FEF87B98F91189575
:0A06D8008F938FEF8BB98F91189567
:0A06E2008F938FEF8FB98F91189559
:0A06EC008F938FEF87BB8F91189555
:0406F6000C94000060
:0406FA000E94B000AA
:0206FE0008955D
:0207000008955A
:02070200089558
:02070400089556
:02000004008278
:090000000000000000C00800002F
:00000001FF
