:100000000C947A000C948C000C948C000C948C0052
:100010000C948C000C948C000C948C000C948C0030
:100020000C948C000C948C000C948C000C948C0020
:100030000C948C000C948C000C948C000C948C0010
:100040000C948C000C948C000C948C000C948C0000
:100050000C948C000C948C000C948C000C948C00F0
:100060000C948C000C948C000C948C000C948C00E0
:100070000C948C000C948C000C948C000C948C00D0
:100080000C948C000C948C000C948C000C948C00C0
:100090000C948C000C948C000C948C000C948C00B0
:1000A0000C948C000C948C000C948C000C948C00A0
:1000B0000C948C000C948C000C948C000C948C0090
:1000C0000C948C000C948C000C948C000C948C0080
:1000D0000C948C000C948C000C948C000C948C0070
:1000E0000C948C000C948C000C948C000C948C0060
:1000F0000C948C0011241FBECFEFCDBFDFE7DEBF15
:1001000020E4A0E0B0E401C01D92A230B207E1F704
:100110000E94F2000C9403010C940000E0E2F4E071
:1001200081E0818382E08283E0E6F8E08CE292E085
:100130008087918783E087838681806486830895A2
:1001400080E28093A204E2EEF5E08081806180830A
:100150008091004090910140892B49F4E0E4F8E05F
:100160008BE09AE18087918782E2878308C0E0E490
:10017000F8E08CE292E08087918783E08783E0E477
:10018000F8E08681806886830895809144088823FA
:10019000E4F78091400808959091640895FFFCCFA2
:1001A00080936208089565EA80E890E00E94FD006F
:1001B0008091650084FFFCCF60E081E690E00E94C2
:1001C000FD0063E880E690E00E94FD0080916500FC
:1001D00080FDFCCF609180006F7780E890E00E9406
:1001E000FD0008950E94D3000E94A0000E948E008E
:1001F0000E94C5000E94CC00FBCFDC0128ED2093BB
:0A02000034006C930895F894FFCFCA
:00000001FF
