S01400004F4C454474656D706C6174652E7372656390
S11300000C949A010C94B9010C94B9010C94B901A3
S11300100C94B9010C94B9010C94B9010C94B90174
S11300200C94B9010C94B9010C94B9010C94B90164
S11300300C94B9010C94B9010C94B9010C94B90154
S11300400C94B9010C94B9010C94B9010C94B90144
S11300500C94B9010C94B9010C94B9010C94B90134
S11300600C94B9010C94B9010C94B9010C94B90124
S11300700C94B9010C94B9010C94B9010C94B90114
S11300800C94B9010C94B9010C94B9010C94B90104
S11300900C94B9010C94B9010C94B9010C94B901F4
S11300A00C94B9010C94B9010C94B9010C94B901E4
S11300B00C94B9010C94B9010C94B9010C94B901D4
S11300C00C94B9010C94B9010C94B9010C94B901C4
S11300D00C94B9010C94B9010C94B9010C94B901B4
S11300E00C94B9010C94B9010C94B9010C94B901A4
S11300F00C94B9010500000000000500005F000039
S113010005000700070005147F147F1405242A7FC7
S11301102A1205231308646205364956205005083F
S11301200703000005001C224100050041221C00B9
S11301300514083E08140508083E08080500B070B8
S11301400000050808080808050060600000052094
S113015010080402053E5149453E0500427F400017
S1130160057249494946052141494D330518141280
S11301707F10052745454539053C4A494931054124
S11301802111090705364949493605464949291EB9
S11301900500001400000500403400000508142286
S11301A04100051414141414054122140800050216
S11301B001590906053E415D594E057C1211127C18
S11301C0057F49494936053E41414122057F414168
S11301D0413E057F49494949057F09090909053E09
S11301E041415173057F0808087F0500417F4100A4
S11301F0052040413F01057F08142241057F40400E
S11302004040057F020C027F057F0408107F053EF5
S11302104141413E057F09090906053E4151215EE0
S1130220057F091929460526494949320501017FF7
S11302300101053F4040403F051F2040201F053F6E
S11302404038403F0563140814630503047804032D
S113025005615149454305007F41410005020408F9
S11302601020050041417F000504020102040540FD
S11302704040404005070B000000052054547840DE
S1130280057F284444380538444444280538444408
S1130290287F0538545454180500087E09020518AF
S11302A0A4A49C78057F080404780500447D4000DC
S11302B0052040403D00057F102844000500417F93
S11302C04000057C04780478057C0804047805382B
S11302D04444443805FC182424180518242418FC24
S11302E0057C080404080548545454240504043FB8
S11302F04424053C4040207C051C2040201C053C37
S11303004030403C054428102844054C9090907C93
S1130310054464544C440500083641000500007748
S11303200000050041360800050402040804050025
S11303307F417F0011241FBECFEFCDBFDFE7DEBFBB
S113034010E4A0E0B0E4E8EBFEE000E00BBF02C084
S113035007900D92A430B107D9F724E4A4E0B0E4E7
S113036001C01D92AD30B207E1F70E94BB010C94AD
S11303705A070C940000CF93DF93CDB7DEB72A97CA
S1130380CDBFDEBF0E94CB0220E048E065E084EFF1
S113039090E00E94320300E010E06EE18CE30E94E2
S11303A0C2021F930F9380E090E49F938F93CE013A
S11303B001967C019F938F930E947D04C7010E9444
S11303C066040E9494020F5F1F4F0F900F900F90CE
S11303D00F900F900F900A30110514F000E010E018
S11303E09FEF24E38CE0915020408040E1F700C06F
S11303F00000D3CF80E090910509907C31F080918A
S1130400050984FD07C081E008C0909105099C702E
S113041019F403C082E001C084E0882361F30895E5
S11304201092E505E0E0F9E088E4868381E08383C7
S11304301782108685830895FF920F931F93CF939D
S1130440DF93C62F8A01D22F8E7F809307090E94E3
S1130450FA01813011F5C09308090E94FA01813034
S1130460F1F4DD23F1F00115110579F480E01CC0ED
S1130470F8018081809308090E94FA01813099F47F
S1130480CF5F0F5F1F4FDF2D01C0C0E0FF24FA9440
S1130490FD0ED111EDCF8C2F07C08FEF05C08FEF6C
S11304A003C080E001C08C2FDF91CF911F910F9189
S11304B0FF90089583E080930409089566956695F6
S11304C06695E82FF0E080E8689FE00DF11D1124A7
S11304D0E35FFF4B40830895669566956695E82F24
S11304E0F0E080E8689FE00DF11D1124E35FFF4B0D
S11304F080810895242FAB01682F88E70E941C0295
S11305000E945A020895CF93DF931F92CDB7DEB7AE
S1130510898341E0BE016F5F7F4F80E00E947A02D1
S11305200F90DF91CF910895CF9381E20E948302CF
S113053080E00E9483028FE70E94830282E20E948D
S1130540830280E00E94830287E00E948302C0E06D
S11305500BC080E1C89FB0011124635F7F4B40E171
S113056080E40E947A02CF5FC03498F3CF9108955B
S1130570882314F0809304400895803410F4809309
S113058005400895CF93C62F0E94B8028C2F0E9475
S1130590BD02CF9108952FEF81EE94E02150804069
S11305A09040E1F700C000000E9410028EEA0E9411
S11305B0830285ED0E94830280EF0E94830288EA11
S11305C00E9483028FE30E94830283ED0E948302D0
S11305D080E00E9483028DE80E94830284E10E94ED
S11305E0830280E40E94830280E20E94830280E00E
S11305F00E94830281EA0E94830288EC0E948302A3
S11306008AED0E94830282E10E94830281E80E94B3
S113061083028FEF0E94830289ED0E94830281EF9F
S11306200E9483028BED0E94830280E20E94830277
S113063084EA0E94830286EA0E9483028EE20E9478
S113064083028FEA0E94830260E080E00E94C2027B
S1130650E4E0F0E486EA828317821682158211822E
S1130660108208956623E4F04034D0F42230C0F4BC
S1130670E4E0F0E4838394836583468350E041504F
S11306805109CA0199230CF4079695958795959578
S1130690879595958795E4E0F0E48F5F87832087BD
S11306A008954F925F926F927F928F929F92AF9232
S11306B0BF92CF92DF92EF92FF920F931F93CF934B
S11306C0DF93A4E0B0E45C9011964C9011978052B3
S11306D015969C91159717962C911797929F9001B8
S11306E011242F5F3F4F829FA001839F500D11243F
S11306F01396ED91FC9114975A018FEFA81AB80A3A
S1130700E40FF51F7490842D8770982E642C812C2F
S11307105FC0662D852D0E94C2027501E80CF11C94
S1130720670181E0C81AD10810E041C080910740F8
S113073090910840FC01EE0DFF1D2491492D50E0DD
S113074030E0092C02C0220F331F0A94E2F7022F73
S11307508820A1F0FC01EC0DFD1DE49188E090E0FF
S1130760841B950BF0E002C0F595E7958A95E2F7B6
S11307700E2F022B80910B40C80ED11C80910C408F
S1130780813039F4E4E0F0E4618180810E946C02FC
S1130790082BC4E0D0E46981888191E0980F9883A4
S11307A0402F0E945E028F81E80EF11C1F5F171517
S11307B008F4BCCF80910C40811107C0E4E0F0E460
S11307C040E0618180810E945E0288E0680E83942B
S11307D080910B40881608F49CCF242D26952695ED
S11307E0269530E080910A4090E0840D911D019798
S11307F0AC0112F4495F5F4F559547955595479560
S1130800559547952417350709F449C08FE3861594
S113081008F445C0662D852D0E94C202A80CB11CA7
S113082081E0A81AB10810E02DC0A4E0B0E413964A
S1130830ED91FC911497EA0DFB1DC49188E090E0C2
S113084089199109D0E002C0D595C7958A95E2F738
S11308504C2F18968C911897813039F4FD016181E1
S113086080810E946C024C2F482BC4E0D0E4698143
S1130870888191E0980F98830E945E028F81A80E70
S1130880B11C1F5F171588F280910C40811107C0BD
S1130890E4E0F0E440E0618180810E945E02852D05
S11308A0870D642D8F5F0E94C202DF91CF911F914B
S11308B00F91FF90EF90DF90CF90BF90AF909F90FB
S11308C08F907F906F905F904F900895CF93DF93B8
S11308D0EC010DC0E4E0F0E49081258130E0290FC3
S11308E0311D2038310534F421960E94510388814A
S11308F08111F0CFDF91CF9108950F931F93CF9380
S1130900DF93CDB7DEB72E97CDBFDEBF0D891E892D
S113091086E08C8309831A838FEF9FE78D839E8300
S1130920AE01475E5F4F6F89788DCE0101960E94BC
S1130930A604EF81F885E00FF11F10822E96CDBF3B
S1130940DEBFDF91CF911F910F9108952F923F92B7
S11309504F925F926F927F928F929F92AF92BF92CB
S1130960CF92DF92EF92FF920F931F93CF93DF9377
S1130970CDB7DEB72B97CDBFDEBF6C017B018A01FB
S1130980FC0116821782838181FFCCC1CE010196BE
S11309903C01F6019381F70193FD859193FF8191C9
S11309A07F01882309F4BAC1853239F493FD859116
S11309B093FF81917F01853229F4B60190E00E9472
S11309C0C006E7CF912C212C312CFFE1F315D8F090
S11309D08B3279F038F4803279F08332A1F4232D0C
S11309E020611DC08D3261F0803369F4232D2160B4
S11309F016C0832D8260382EE32DE4603E2E2AC07B
S1130A00F32DF8601DC037FC2DC020ED280F2A30CF
S1130A1040F08E32B9F436FC81C1232D2064322E8D
S1130A2019C036FE06C08AE0989E200D1124922E2D
S1130A3011C0EAE02E9E200D1124222EF32DF06227
S1130A403F2E08C08C3621F4832D8068382E02C0D6
S1130A50883641F4F70193FD859193FF81917F01DD
S1130A608111B3CF982F9F7D9554933028F40C5F58
S1130A701F4F9FE399830DC0833631F0833771F0A4
S1130A80833509F059C021C0F801808189830E5F44
S1130A901F4F88248394912C530113C02801F2E042
S1130AA04F0E511CF801A080B18036FE03C0692DA1
S1130AB070E002C06FEF7FEFC5010E94B5064C01E4
S1130AC08201F32DFF773F2E16C0280122E0420E4B
S1130AD0511CF801A080B18036FE03C0692D70E07E
S1130AE002C06FEF7FEFC5010E94AA064C01F32DEF
S1130AF0F0683F2E820133FC1BC0822D90E08816E3
S1130B009906B0F4B60180E290E00E94C0062A94EF
S1130B10F4CFF50137FC859137FE81915F01B60171
S1130B2090E00E94C00621102A9421E0821A9108C4
S1130B308114910471F7E8C0843611F0893641F5C7
S1130B40F80137FE07C060817181828193810C5F57
S1130B501F4F08C060817181072E000C880B990B10
S1130B600E5F1F4FF32DFF763F2E97FF09C0909520
S1130B708095709561957F4F8F4F9F4FF0683F2E02
S1130B802AE030E0A3010E94FC06882E861845C0A6
S1130B90853731F4232D2F7EB22E2AE030E025C094
S1130BA0932D997FB92E8F36C1F018F4883579F0DA
S1130BB0B5C0803719F0883721F0B0C0E92FE06163
S1130BC0BE2EB4FE0DC0FB2DF460BF2E09C034FE52
S1130BD00AC0292F2660B22E06C028E030E005C0E6
S1130BE020E130E002C020E132E0F801B7FE07C0A6
S1130BF060817181828193810C5F1F4F06C0608187
S1130C00718180E090E00E5F1F4FA3010E94FC06FB
S1130C10882E8618FB2DFF773F2E36FE0DC0232D20
S1130C202E7FA22E891458F434FE0BC032FC09C066
S1130C30832D8E7EA82E05C0B82CA32C03C0B82CFF
S1130C4001C0B92CA4FE0FC0FE01E80DF11D808186
S1130C50803321F49A2D997EA92E09C0A2FE06C0E4
S1130C60B394B39404C08A2D867809F0B394A3FC9A
S1130C7011C0A0FE06C0B21488F4280C922C9B1854
S1130C800EC0B21460F4B60180E290E00E94C00687
S1130C90B394F7CFB21418F42B1802C0982C212C5B
S1130CA0A4FE10C0B60180E390E00E94C006A2FE3C
S1130CB017C0A1FC03C088E790E002C088E590E07B
S1130CC0B6010CC08A2D867859F0A1FE02C08BE2D1
S1130CD001C080E2A7FC8DE2B60190E00E94C0064C
S1130CE0891438F4B60180E390E00E94C0069A9417
S1130CF0F7CF8A94F301E80DF11D8081B60190E0ED
S1130D000E94C0068110F5CF222009F442CEB6011C
S1130D1080E290E00E94C0062A94F6CFF601868114
S1130D20978102C08FEF9FEF2B96CDBFDEBFDF917F
S1130D30CF911F910F91FF90EF90DF90CF90BF90D4
S1130D40AF909F908F907F906F905F904F903F9067
S1130D502F900895FC010590615070400110D8F760
S1130D60809590958E0F9F1F0895FC0161507040EF
S1130D7001900110D8F7809590958E0F9F1F0895CC
S1130D800F931F93CF93DF93FB01238121FD03C0B6
S1130D908FEF9FEF2CC022FF16C04681578124811C
S1130DA035814217530744F4A081B1819D012F5F1F
S1130DB03F4F208331838C93268137812F5F3F4FB0
S1130DC02683378314C08B01EC01FB010084F18579
S1130DD0E02D0995892BE1F6D80116968D919C9109
S1130DE01797019616968D939C931797CE01DF91D2
S1130DF0CF911F910F910895FA01AA27283051F13C
S1130E00203181F1E8946F936E7F6E5F7F4F8F4F37
S1130E109F4FAF4FB1E03ED0B4E03CD0670F781F96
S1130E20891F9A1FA11D680F791F8A1F911DA11D7B
S1130E306A0F711D811D911DA11D20D009F46894B4
S1130E403F912AE0269F11243019305D3193DEF65C
S1130E50CF010895462F4770405D4193B3E00FD012
S1130E60C9F7F6CF462F4F70405D4A3318F0495DFD
S1130E7031FD4052419302D0A9F7EACFB4E0A695E0
S1130E809795879577956795BA95C9F70097610502
S1130E90710508959B01AC010A2E06945795479558
S1130EA037952795BA95C9F7620F731F841F951F4D
S10B0EB0A01D0895F894FFCF82
S1070EB825640000A9
S9030000FC
