:100000000C947D000C9407030C9407030C940703D5
:100010000C9407030C9407030C9407030C94070338
:100020000C94F3020C9407030C9407030C9407033D
:100030000C9407030C9407030C9407030C94070318
:100040000C9407030C9407030C9407030C94070308
:100050000C9407030C9407030C9407030C940703F8
:100060000C94F8020C9407030C9407030C940703F8
:100070000C9407030C9407030C94A2010C9407033F
:100080000C9407030C9407030C9407030C94E601EB
:100090000C9407030C9407030C9407030C940703B8
:1000A0000C9407030C9407030C9407030C940703A8
:1000B0000C9407030C941C020C94FD020C9407038F
:1000C0000C9407030C9407030C9407030C94070388
:1000D0000C9407030C9407030C9407030C94070378
:1000E0000C9407030C9407030C9407030C94070368
:1000F0000C940703400040108000809101108F7C19
:100100008060806898ED94BF8093011011241FBE19
:10011000CFEFCDBFDFE7DEBFE4EFF0E040E019C096
:10012000B791A79137912791079107FD0EC097913D
:100130008791EF01F92FE82F0BBF07900D92A217BF
:10014000B307D9F7FE011BBE04C01D92A217B30767
:10015000E1F7E93FF40721F70E944B020C94CB0230
:04016000F894FFCF41
:100164000F931F93CF93DF9340E054E0FA0114827E
:1001740020E234E0F901148280E494E0FC0114826A
:10018400C0E6D4E01C82A0E8B4E014961C92149754
:1001940000EA14E0F8011482FA01108268E0F9011F
:1001A40060836FE0FC01608318821C92F801108266
:1001B400FA01108A118A128A138A148A158A168AF5
:1001C400178AF901108A118A128A138A148A158AE5
:1001D400168A178AFC01108A118A128A138A148AD1
:1001E400158A168A178A188A198A1A8A1B8A1C8AF7
:1001F4001D8A1E8A1F8A50961C92509751961C92F3
:10020400519752961C92529753961C925397549618
:100214001C92549755961C92559756961C92569735
:1002240057961C92F801108A118A128A138A8AE05E
:10023400848B858B168A178AE0EEF5E0118611828D
:1002440010821482168217821086158212821382FB
:1002540012868BE093E080930C4090930D408CE0E9
:1002640093E080930A4090930B408DE093E0809359
:100274000840909309408EE093E080930640909369
:1002840007408FE093E0809304409093054080E121
:1002940093E0809302409093034081E193E0809344
:1002A400004090930140DF91CF911F910F910895E9
:1002B40040E068ED80E690E00E94E40240E068EDF2
:1002C40081E690E00E94E40240E068ED88E790E077
:1002D4000E94E4024CE068ED88E690E00E94E402AB
:1002E40040E068ED89E690E00E94E40240E068EDB9
:1002F40080E790E00E94E40240E068ED8CE790E043
:100304000E94E40240E068ED82E690E00E94E4028C
:1003140040E068ED83E690E00E94E40240E068ED8E
:1003240084E690E00E94E40240E068ED80E890E01A
:100334000E94E402E0E6F0E0858181FFFDCF0895AC
:100344001F920F920FB60F9211240BB60F922F9398
:100354003F934F935F936F937F938F939F93AF9349
:10036400BF93EF93FF93589B05C0E0910640F09133
:1003740007400995599B05C0E0910440F091054060
:1003840009955A9B05C0E0910240F09103400995FC
:100394005B9B05C0E0910040F091014009958FEF0F
:1003A4008BB9FF91EF91BF91AF919F918F917F9105
:1003B4006F915F914F913F912F910F900BBE0F90D2
:0803C4000FBE0F901F90189569
:1003CC001F920F920FB60F9211240BB60F922F9310
:1003DC003F934F935F936F937F938F939F93AF93C1
:1003EC00BF93EF93FF93BC9B05C0E0910C40F09141
:1003FC000D400995BD9B05C0E0910A40F0910B4062
:10040C0009958FEF87BBFF91EF91BF91AF919F91B2
:10041C008F917F916F915F914F913F912F910F90A1
:0C042C000BBE0F900FBE0F901F90189594
:100438001F920F920FB60F9211240BB60F922F93A3
:100448003F934F935F936F937F938F939F93AF9354
:10045800BF93EF93FF933B9B05C0E0910840F09159
:10046800094009958FEF87B9FF91EF91BF91AF913F
:100478009F918F917F916F915F914F913F912F91B4
:0E0488000F900BBE0F900FBE0F901F90189597
:100496000E94D6028DED92E00E94E90282E093E08E
:1004A6000E94EE0280910E4090910F40892B49F0F8
:1004B6000E9467020E947A020E948D020E94A00298
:0804C600F1CF0E94C002EECF4D
:1004CE00A5E4B4E081E08C93E6E4F4E082E080837E
:1004DE0084E08C9388E0808387E59BE10197F1F7B8
:0604EE0000C000000895AB
:1004F400E6E4F4E081E08083A5E4B4E082E08C9358
:1005040084E08C9388E0808387E59BE10197F1F791
:0605140000C00000089584
:10051A00A6E4B4E081E08C93E5E4F4E082E0808331
:10052A0084E08C9388E0808387E59BE10197F1F76B
:06053A0000C0000008955E
:10054000E5E4F4E081E08083A6E4B4E082E08C930B
:1005500084E08C9388E0808387E59BE10197F1F745
:0605600000C00000089538
:1005660040E068ED80E191E00E94E402E0E1F1E024
:0A05760012821382789480E0089549
:10058000E5E4F4E081E0808382E0808384E080839E
:0605900088E0808308955D
:10059600EC010E9413030E941203CE010E94140371
:0605A600CE010E940903D2
:0E05AC000E945A010E94B2000E94B3020895FC
:0E05BA0081E090E080930E4090930F400895F2
:0A05C8001BBEFC0164BF40830895D0
:0A05D20080930C4090930D400895B3
:0A05DC0080930A4090930B400895AD
:0A05E6008F938FEF83B98F91189562
:0A05F0008F938FEF8FB98F9118954C
:0A05FA008F938FEF83BB8F9118954C
:0A06040010920E4010920F4008956E
:04060E000C94000048
:040612000E94B00092
:02061600089545
:02061800089543
:02061A00089541
:02061C0008953F
:02061E0008953D
:0206200008953B
:02062200089539
:02062400089537
:02062600089535
:02062800089533
:02000004008278
:090000000000000000C00800002F
:00000001FF
