:100000000C947D000C94A1020C94A1020C94A1020A
:100010000C94A1020C94A1020C94A1020C94A102D4
:100020000C9488020C94A1020C94A1020C94A102DD
:100030000C94A1020C94A1020C94A1020C94A102B4
:100040000C94A1020C94A1020C94A1020C94A102A4
:100050000C94A1020C94A1020C94A1020C94A10294
:100060000C9492020C94A1020C94A1020C94A10293
:100070000C94A1020C94A1020C948E010C94A10288
:100080000C94A1020C94A1020C94A1020C949C0269
:100090000C94A1020C94A1020C94A1020C94A10254
:1000A0000C94A1020C94A1020C94A1020C94A10244
:1000B0000C94A1020C948D020C9497020C94A10252
:1000C0000C94A1020C94A1020C94A1020C94A10224
:1000D0000C94A1020C94A1020C94A1020C94A10214
:1000E0000C94A1020C94A1020C94A1020C94A10204
:1000F0000C94A102400040088000809101108F7C88
:100100008060806898ED94BF8093011011241FBE19
:10011000CFEFCDBFDFE7DEBFE4EFF0E040E019C096
:10012000B791A79137912791079107FD0EC097913D
:100130008791EF01F92FE82F0BBF07900D92A217BF
:10014000B307D9F7FE011BBE04C01D92A217B30767
:10015000E1F7E93FF40721F70E94D2010C94710204
:04016000F894FFCF41
:100164000F931F93CF93DF9340E054E0FA0114827E
:1001740020E234E0F901148280E494E0FC0114826A
:10018400C0E6D4E01C82A0E8B4E014961C92149754
:1001940000EA14E0F8011482FA011082F9011082D5
:1001A4006FE0FC01608318821C92F8011082FA014E
:1001B400108A118A128A138A148A158A168A178A4F
:1001C400F901108A118A128A138A148A158A168AE6
:1001D400178AFC01108A118A128A138A148A158AD2
:1001E400168A178A188A198A1A8A1B8A1C8A1D8AEF
:1001F4001E8A1F8A50961C92509751961C925197B2
:1002040052961C92529753961C92539754961C9252
:10021400549755961C92559756961C9256975796F6
:100224001C92F801108A118A128A138A148A158A78
:10023400168A178AE0EEF5E0118611821082148284
:10024400168217821086158212821382128685EA1C
:1002540092E0809306409093074086EA92E0809370
:1002640004409093054087EA92E080930240909383
:10027400034088EA92E08093004090930140DF912C
:08028400CF911F910F91089525
:10028C0040E068ED80E690E00E94830240E068ED7B
:10029C0081E690E00E94830240E068ED88E790E000
:1002AC000E9483024CE068ED88E690E00E94830295
:1002BC0040E068ED89E690E00E94830240E068ED42
:1002CC0080E790E00E94830240E068ED8CE790E0CC
:1002DC000E94830240E068ED82E690E00E94830277
:1002EC0040E068ED83E690E00E94830240E068ED18
:1002FC0084E690E00E94830240E068ED80E890E0A4
:10030C000E948302E0E6F0E0858181FFFDCF089535
:10031C001F920F920FB60F9211240BB60F922F93C0
:10032C003F934F935F936F937F938F939F93AF9371
:10033C00BF93EF93FF93589B05C0E0910640F0915B
:10034C0007400995599B05C0E0910440F091054088
:10035C0009955A9B05C0E0910240F0910340099524
:10036C005B9B05C0E0910040F091014009958FEF37
:10037C008BB9FF91EF91BF91AF919F918F917F912D
:10038C006F915F914F913F912F910F900BBE0F90FA
:08039C000FBE0F901F90189591
:1003A4000E947C02CEE7D0E00E9403020E94160263
:1003B4000E9429020E943C022197B1F70E94660222
:1003C4002FEF89E698E1215080409040E1F700C08A
:1003D4000000CEE7D0E00E9429020E9416020E948B
:1003E40003020E943C022197B1F70E945B022FEFA7
:1003F40089E698E1215080409040E1F700C0000078
:02040400D1CF56
:10040600A5E4B4E081E08C93E6E4F4E082E0808346
:1004160084E08C9388E080838FE097E20197F1F780
:0604260000C00000089573
:10042C00E6E4F4E081E08083A5E4B4E082E08C9320
:10043C0084E08C9388E080838FE097E20197F1F75A
:06044C0000C0000008954D
:10045200A6E4B4E081E08C93E5E4F4E082E08083FA
:1004620084E08C9388E080838FE097E20197F1F734
:0604720000C00000089527
:10047800E5E4F4E081E08083A6E4B4E082E08C93D4
:1004880084E08C9388E080838FE097E20197F1F70E
:0604980000C00000089501
:10049E0040E068ED80E191E00E948302E0E1F1E04E
:0804AE001282138280E0089520
:1004B600E5E4F4E081E0808382E0808384E0808369
:0604C60088E08083089528
:1004CC00E6E4F4E081E0808382E0808384E0808352
:0604DC0088E08083089512
:1004E200EC010E94AA020E94A902CE010E94AB0264
:0604F200CE010E94A302EE
:0E04F8000E9446010E94B2000E944F02089529
:0A0506001BBEFC0164BF4083089592
:0A0510008F938FEF83B98F91189538
:0A051A008F938FEF87B98F9118952A
:0A0524008F938FEF8FB98F91189518
:0A052E008F938FEF83BB8F91189518
:0A0538008F938FEF87BB8F9118950A
:040542000C94000015
:040546000E94B0005F
:02054A00089512
:02054C00089510
:02054E0008950E
:0205500008950C
:0205520008950A
:02055400089508
:02055600089506
:02000004008278
:090000000000000000C00800002F
:00000001FF
