:100000000C9457000C94BD010C94BD010C94BD01DF
:100010000C94BD010C94BD010C94BD010C94BD0168
:100020000C9440010C94BD010C94BD010C94BD01D5
:100030000C94BD010C94BD010C94BD010C94BD0148
:100040000C94BD010C94BD010C94BD010C94BD0138
:100050000C94BD010C94BD010C94BD010C94BD0128
:100060000C94B3010C94BD010C94BD010C94BD0122
:100070000C94BD010C94BD010C94AE010C94BD0117
:100080000C94BD010C94BD010C94BD010C94B801FD
:100090000C94BD010C94BD010C94BD010C94BD01E8
:1000A0000C94BD010C94BD0140004006800080917D
:1000B00001108F7C8060806898ED94BF8093011060
:1000C00011241FBECFEFCDBFDFE7DEBFE8EAF0E0CF
:1000D00040E019C0B791A79137912791079107FD8B
:1000E0000EC097918791EF01F92FE82F0BBF079072
:1000F0000D92A217B307D9F7FE011BBE04C01D92D3
:10010000A217B307E1F7ED3AF40721F70E947D014A
:080110000C949701F894FFCF55
:10011800CF93DF9380E094E0FC011482C0E4D4E044
:100128001C82A0E6B4E014961C92149740EA54E0AE
:10013800FA01148220E4FC01208318821C92FA013F
:100148001082FC01108A118A128A138A148A23E009
:10015800258B168A178A188A198A1A8A1B8A1C8A72
:100168001D8A1E8A1F8A50961C92509751961C927F
:10017800519752961C92529753961C9253975496A5
:100188001C92549755961C92559756961C925697C2
:1001980057961C92FA01108A118A128A138A148AB5
:1001A800158A168A178AE0EEF5E011861182108208
:1001B800148216821782108615821282128681ECAA
:1001C80091E0809304409093054082EC91E0809305
:1001D80002409093034083EC91E080930040909319
:0801E8000140DF91CF91089561
:1001F00040E068ED80E690E00E94A90140E068EDF3
:1002000081E690E00E94A90140E068ED88E790E077
:100210000E94A9014CE068ED88E690E00E94A901E7
:1002200040E068ED89E690E00E94A90140E068EDB9
:1002300080E790E00E94A90140E068ED8CE790E043
:100240000E94A90140E068ED82E690E00E94A901C9
:1002500040E068ED83E690E00E94A90140E068ED8F
:1002600084E690E00E94A90140E068ED80E890E01B
:100270000E94A901E0E6F0E0858181FFFDCF0895AD
:100280001F920F920FB60F9211240BB60F922F935D
:100290003F934F935F936F937F938F939F93AF930E
:1002A000BF93EF93FF931C9B05C0E0910440F09136
:1002B000054009951D9B05C0E0910240F091034067
:1002C00009951E9B05C0E0910040F0910140099501
:1002D0008FEF83B9FF91EF91BF91AF919F918F9174
:1002E0007F916F915F914F913F912F910F900BBE36
:0A02F0000F900FBE0F901F9018959D
:1002FA000E94A201E5E0F4E080E4982FA6E0B4E0D1
:0C030A0015998083149BFCCF9C93FACFC4
:1003160040E068ED80E191E00E94A901E0E1F1E0B2
:080326001282138280E00895A9
:10032E00EC010E94C5010E94C401CE010E94C601CB
:06033E00CE010E94BF0188
:0E0344000E94F8000E948C000E948B01089518
:0A0352001BBEFC0164BF4083089548
:0A035C008F938FEF8BB98F911895E6
:0A0366008F938FEF8FB98F911895D8
:0A0370008F938FEF87BB8F911895D4
:04037A000C940000DF
:04037E000E948A004F
:020382000895DC
:020384000895DA
:020386000895D8
:020388000895D6
:02038A000895D4
:02038C000895D2
:02000004008278
:090000000000000000C00800002F
:00000001FF
