:100000000C947D000C941F020C941F020C941F0290
:100010000C941F020C941F020C941F020C941F02DC
:100020000C9402020C941F020C941F020C941F02E9
:100030000C941F020C941F020C941F020C941F02BC
:100040000C941F020C941F020C941F020C941F02AC
:100050000C941F020C941F020C941F020C941F029C
:100060000C940C020C941F020C941F020C941F029F
:100070000C941F020C941F020C9407020C941F0294
:100080000C941F020C941F020C941F020C94160275
:100090000C941F020C941F020C941F020C941F025C
:1000A0000C941F020C941F020C941F020C941F024C
:1000B0000C941F020C9483010C9411020C941F02E7
:1000C0000C941F020C941F020C941F020C941F022C
:1000D0000C941F020C941F020C941F020C941F021C
:1000E0000C941F020C941F020C941F020C941F020C
:1000F0000C941F02400040048000809101108F7C0E
:100100008060806898ED94BF8093011011241FBE19
:10011000CFEFCDBFDFE7DEBFE4EFF0E040E019C096
:10012000B791A79137912791079107FD0EC097913D
:100130008791EF01F92FE82F0BBF07900D92A217BF
:10014000B307D9F7FE011BBE04C01D92A217B30767
:10015000E1F7E93FF40721F70E94B9010C94E401AB
:04016000F894FFCF41
:100164000F931F93CF93DF9340E054E0FA0114827E
:1001740020E234E0F901148280E494E0FC0114826A
:10018400C0E6D4E01C82A0E8B4E014961C92149754
:1001940000EA14E0F8011482FA01108268E0F9011F
:1001A4006083FC01108218821C92F8011082FA010B
:1001B400108A118A128A138A148A158A168A178A4F
:1001C400F901108A118A4BE0428B138A148A158A2A
:1001D400168A178AFC01108A118A128A138A148AD1
:1001E400158A168A178A188A198A1A8A1B8A1C8AF7
:1001F4001D8A1E8A1F8A50961C92509751961C92F3
:10020400519752961C92529753961C925397549618
:100214001C92549755961C92559756961C92569735
:1002240057961C92F801108A118A128A138A148A2A
:10023400158A168A178AE0EEF5E01186118210827B
:1002440014821682178210861582128213821286F5
:1002540083E292E0809302409093034084E292E030
:100264008093004090930140DF91CF911F910F91B3
:020274000895EB
:1002760040E068ED80E690E00E94F80140E068ED1D
:1002860081E690E00E94F80140E068ED88E790E0A2
:100296000E94F8014CE068ED88E690E00E94F801C3
:1002A60040E068ED89E690E00E94F80140E068EDE4
:1002B60080E790E00E94F80140E068ED8CE790E06E
:1002C6000E94F80140E068ED82E690E00E94F801A5
:1002D60040E068ED83E690E00E94F80140E068EDBA
:1002E60084E690E00E94F80140E068ED80E890E046
:1002F6000E94F801E0E6F0E0858181FFFDCF0895D8
:100306001F920F920FB60F9211240BB60F922F93D6
:100316003F934F935F936F937F938F939F93AF9387
:10032600BF93EF93FF933A9B05C0E0910240F09193
:10033600034009953B9B05C0E0910040F0910140C8
:1003460009958FEF87B9FF91EF91BF91AF919F917B
:100356008F917F916F915F914F913F912F910F9068
:0C0366000BBE0F900FBE0F901F9018955B
:100372000E94EF018BE192E00E94FD01E0E5F0E0D6
:10038200808181608083889580818E7F8083F8CF91
:1003920041E068ED80E590E00E94F80140E068ED00
:0C03A20081E590E00E94F80180E00895E1
:1003AE0040E068ED80E191E00E94F801E0E1F1E0CB
:0A03BE0012821382789480E0089503
:1003C800EC010E9426020E942502CE010E9427020B
:0603D800CE010E9421028B
:1003DE000E943B010E94B2000E94C9010E94D701F7
:0203EE00089570
:0A03F0001BBEFC0164BF40830895AA
:0A03FA0080930240909303400895A1
:0A0404008F938FEF83B98F91189545
:0A040E008F938FEF8BB98F91189533
:0A0418008F938FEF8FB98F91189525
:0A0422008F938FEF83BB8F91189525
:0A042C008F938FEF87BB8F91189517
:0804360088E08093270408957B
:04043E000C9400001A
:040442000E94B00064
:02044600089517
:02044800089515
:02044A00089513
:02044C00089511
:02044E0008950F
:02000004008278
:090000000000000000C00800002F
:00000001FF
