:100000000C947D000C9431020C9431020C9431025A
:100010000C9431020C9431020C9431020C94310294
:100020000C9418020C9431020C9431020C9431029D
:100030000C9431020C9431020C9431020C94310274
:100040000C9431020C9431020C9431020C94310264
:100050000C9431020C9431020C9431020C94310254
:100060000C9422020C9431020C9431020C94310253
:100070000C9431020C9431020C941D020C94310248
:100080000C9431020C9431020C9431020C942C0229
:100090000C9431020C9431020C9431020C94310214
:1000A0000C9431020C9431020C9431020C94310204
:1000B0000C9431020C9483010C9427020C943102AD
:1000C0000C9431020C9431020C9431020C943102E4
:1000D0000C9431020C9431020C9431020C943102D4
:1000E0000C9431020C9431020C9431020C943102C4
:1000F0000C943102400040068000809101108F7CFA
:100100008060806898ED94BF8093011011241FBE19
:10011000CFEFCDBFDFE7DEBFE4EFF0E040E019C096
:10012000B791A79137912791079107FD0EC097913D
:100130008791EF01F92FE82F0BBF07900D92A217BF
:10014000B307D9F7FE011BBE04C01D92A217B30767
:10015000E1F7E93FF40721F70E94B9010C94FA0195
:04016000F894FFCF41
:100164000F931F93CF93DF9340E054E0FA0114827E
:1001740020E234E0F901148280E494E0FC0114826A
:10018400C0E6D4E01C82A0E8B4E014961C92149754
:1001940000EA14E0F8011482FA01108268E0F9011F
:1001A4006083FC01108218821C92F8011082FA010B
:1001B400108A118A128A138A148A158A168A178A4F
:1001C400F901108A118A4BE0428B138A148A158A2A
:1001D400168A178AFC01108A118A128A138A148AD1
:1001E400158A168A178A188A198A1A8A1B8A1C8AF7
:1001F4001D8A1E8A1F8A50961C92509751961C92F3
:10020400519752961C92529753961C925397549618
:100214001C92549755961C92559756961C92569735
:1002240057961C92F801108A118A128A138A148A2A
:10023400158A168A178AE0EEF5E01186118210827B
:1002440014821682178210861582128213821286F5
:1002540085E392E0809304409093054086E392E026
:100264008093024090930340DF91CF911F910F91AF
:020274000895EB
:1002760040E068ED80E690E00E940E0240E068ED06
:1002860081E690E00E940E0240E068ED88E790E08B
:100296000E940E024CE068ED88E690E00E940E0295
:1002A60040E068ED89E690E00E940E0240E068EDCD
:1002B60080E790E00E940E0240E068ED8CE790E057
:1002C6000E940E0240E068ED82E690E00E940E0277
:1002D60040E068ED83E690E00E940E0240E068EDA3
:1002E60084E690E00E940E0240E068ED80E890E02F
:1002F6000E940E02E0E6F0E0858181FFFDCF0895C1
:100306001F920F920FB60F9211240BB60F922F93D6
:100316003F934F935F936F937F938F939F93AF9387
:10032600BF93EF93FF933A9B05C0E0910440F09191
:10033600054009953B9B05C0E0910240F0910340C2
:1003460009958FEF87B9FF91EF91BF91AF919F917B
:100356008F917F916F915F914F913F912F910F9068
:0C0366000BBE0F900FBE0F901F9018955B
:100372000E9405028DEE91E00E941302E0E5F0E09A
:10038200808181608083889580818E7F8083809147
:10039200004090910140019680930040909301406B
:0203A200EFCF9B
:1003A40041E068ED80E590E00E940E0240E068EDD7
:0C03B40081E590E00E940E0280E00895B8
:1003C00040E068ED80E191E00E940E02E0E1F1E0A2
:0A03D00012821382789480E00895F1
:1003DA0088E0809327048091004090910140019623
:0A03EA0080930040909301400895B5
:1003F400EC010E9438020E943702CE010E943902A9
:06040400CE010E9433024C
:10040A000E943B010E94B2000E94D2010E94E001B8
:02041A00089543
:0A041C001BBEFC0164BF408308957D
:0A0426008093044090930540089570
:0A0430008F938FEF83B98F91189519
:0A043A008F938FEF8BB98F91189507
:0A0444008F938FEF8FB98F911895F9
:0A044E008F938FEF83BB8F911895F9
:0A0458008F938FEF87BB8F911895EB
:040462000C940000F6
:040466000E94B00040
:02046A000895F3
:02046C000895F1
:02046E000895EF
:020470000895ED
:020472000895EB
:02000004008278
:090000000000000000C00800002F
:00000001FF
