:100000000C947A000C9484000C9484000C9484006A
:100010000C9484000C9484000C9484000C94840050
:100020000C9484000C9484000C9484000C94840040
:100030000C9484000C9484000C9484000C94840030
:100040000C9484000C9484000C9484000C94840020
:100050000C9484000C9484000C9484000C94840010
:100060000C9484000C9484000C9484000C94840000
:100070000C9484000C9484000C9484000C948400F0
:100080000C9484000C9484000C9484000C948400E0
:100090000C9484000C9484000C9484000C948400D0
:1000A0000C9484000C9484000C9484000C948400C0
:1000B0000C9484000C9484000C9484000C948400B0
:1000C0000C9484000C9484000C9484000C948400A0
:1000D0000C9484000C9484000C9484000C94840090
:1000E0000C9484000C9484000C9484000C94840080
:1000F0000C94840011241FBECFEFCDBFDFE7DEBF1D
:100100000E9492000C94C8000C94000020910504F9
:1001100030E02817390729F0E0E0F4E09FEF9683FC
:1001200085830895E0E0F4E08081806F8083E0EAD9
:10013000F4E080818C60808388E08093A504E0E80F
:10014000F4E0808586958695869591E08927817073
:10015000C82F80E0D82F8085869586958927082F1F
:10016000017010E09E01200F311F80858695982731
:1001700090FBEE24E0F8F12CC9018E0D9F1D8295B5
:100180009295907F9827807F98270E948600D4CFF1
:04019000F894FFCF11
:00000001FF
