:100000000C947A000C9484000C9484000C9484006A
:100010000C9484000C9484000C9484000C94840050
:100020000C9484000C9484000C9484000C94840040
:100030000C9484000C9484000C9484000C94840030
:100040000C9484000C9484000C9484000C94840020
:100050000C9484000C9484000C9484000C94840010
:100060000C9484000C9484000C9484000C94840000
:100070000C9484000C9484000C9484000C948400F0
:100080000C9484000C9484000C9484000C948400E0
:100090000C9484000C9484000C9484000C948400D0
:1000A0000C9484000C9484000C9484000C948400C0
:1000B0000C9484000C9484000C9484000C948400B0
:1000C0000C9484000C9484000C9484000C948400A0
:1000D0000C9484000C9484000C9484000C94840090
:1000E0000C9484000C9484000C9484000C94840080
:1000F0000C94840011241FBECFEFCDBFDFE7DEBF1D
:100100000E9486000C9409010C940000E0E0F4E0E9
:100110008081806F8083E0EAF4E080818C6080835E
:1001200088E08093A5048091880483FD08C08091B5
:10013000880482FF04C08091880481FD18C08091EA
:10014000880483FF08C08091880482FF04C08091E6
:10015000880481FF0CC08091880483FF13C08091C4
:10016000880482FD0FC08091880481FF0BC08091BC
:1001700005048031A9F2E0E0F4E08FEF868380E1AE
:100180008583CECF8091880483FD08C08091880448
:1001900082FD04C08091880481FD0CC08091880498
:1001A00083FF14C08091880482FD10C08091880470
:1001B00081FD0CC080910504803209F4B1CFE0E0EC
:1001C000F4E08FEF868380E28583AACF8091880454
:1001D00083FD14C08091880482FD10C08091880442
:1001E00081FD0CC080910504803309F499CFE0E0D3
:1001F000F4E08FEF868380E3858392CF80910504BE
:10020000882309F48DCFE0E0F4E08FEF8683158238
:0602100087CFF894FFCF38
:00000001FF
